{
  "contractName": "ComplianceAudit",
  "abi": [
    {
      "inputs": [
        {
          "internalType": "address",
          "name": "_userManagementAddress",
          "type": "address"
        },
        {
          "internalType": "address",
          "name": "_recyclerAddress",
          "type": "address"
        },
        {
          "internalType": "address",
          "name": "_eWasteTrackerAddress",
          "type": "address"
        },
        {
          "internalType": "address",
          "name": "_logisticsTrackerAddress",
          "type": "address"
        }
      ],
      "stateMutability": "nonpayable",
      "type": "constructor"
    },
    {
      "anonymous": false,
      "inputs": [
        {
          "indexed": false,
          "internalType": "uint256",
          "name": "id",
          "type": "uint256"
        },
        {
          "indexed": false,
          "internalType": "uint256",
          "name": "wasteId",
          "type": "uint256"
        },
        {
          "indexed": false,
          "internalType": "enum ComplianceAudit.ComplianceStatus",
          "name": "status",
          "type": "uint8"
        },
        {
          "indexed": false,
          "internalType": "string",
          "name": "details",
          "type": "string"
        },
        {
          "indexed": true,
          "internalType": "address",
          "name": "auditor",
          "type": "address"
        },
        {
          "indexed": false,
          "internalType": "uint256",
          "name": "auditedAt",
          "type": "uint256"
        }
      ],
      "name": "AuditLogged",
      "type": "event"
    },
    {
      "anonymous": false,
      "inputs": [
        {
          "indexed": false,
          "internalType": "uint256",
          "name": "wasteId",
          "type": "uint256"
        },
        {
          "indexed": false,
          "internalType": "string",
          "name": "certificateHash",
          "type": "string"
        },
        {
          "indexed": true,
          "internalType": "address",
          "name": "recipient",
          "type": "address"
        },
        {
          "indexed": false,
          "internalType": "uint256",
          "name": "issuedAt",
          "type": "uint256"
        }
      ],
      "name": "CertificateIssued",
      "type": "event"
    },
    {
      "anonymous": false,
      "inputs": [
        {
          "indexed": false,
          "internalType": "uint256",
          "name": "wasteId",
          "type": "uint256"
        },
        {
          "indexed": true,
          "internalType": "address",
          "name": "responsible",
          "type": "address"
        },
        {
          "indexed": false,
          "internalType": "string",
          "name": "details",
          "type": "string"
        },
        {
          "indexed": true,
          "internalType": "address",
          "name": "auditor",
          "type": "address"
        }
      ],
      "name": "NonComplianceLogged",
      "type": "event"
    },
    {
      "inputs": [],
      "name": "auditCounter",
      "outputs": [
        {
          "internalType": "uint256",
          "name": "",
          "type": "uint256"
        }
      ],
      "stateMutability": "view",
      "type": "function",
      "constant": true
    },
    {
      "inputs": [
        {
          "internalType": "uint256",
          "name": "",
          "type": "uint256"
        }
      ],
      "name": "audits",
      "outputs": [
        {
          "internalType": "uint256",
          "name": "id",
          "type": "uint256"
        },
        {
          "internalType": "uint256",
          "name": "wasteId",
          "type": "uint256"
        },
        {
          "internalType": "enum ComplianceAudit.ComplianceStatus",
          "name": "complianceStatus",
          "type": "uint8"
        },
        {
          "internalType": "string",
          "name": "details",
          "type": "string"
        },
        {
          "internalType": "string",
          "name": "evidenceHash",
          "type": "string"
        },
        {
          "internalType": "address",
          "name": "auditor",
          "type": "address"
        },
        {
          "internalType": "uint256",
          "name": "auditedAt",
          "type": "uint256"
        }
      ],
      "stateMutability": "view",
      "type": "function",
      "constant": true
    },
    {
      "inputs": [],
      "name": "eWasteTracker",
      "outputs": [
        {
          "internalType": "contract eWasteTracking",
          "name": "",
          "type": "address"
        }
      ],
      "stateMutability": "view",
      "type": "function",
      "constant": true
    },
    {
      "inputs": [],
      "name": "logisticsTracker",
      "outputs": [
        {
          "internalType": "contract LogisticsTracking",
          "name": "",
          "type": "address"
        }
      ],
      "stateMutability": "view",
      "type": "function",
      "constant": true
    },
    {
      "inputs": [],
      "name": "recycler",
      "outputs": [
        {
          "internalType": "contract RecyclingManagement",
          "name": "",
          "type": "address"
        }
      ],
      "stateMutability": "view",
      "type": "function",
      "constant": true
    },
    {
      "inputs": [],
      "name": "userManagement",
      "outputs": [
        {
          "internalType": "contract UserManagement",
          "name": "",
          "type": "address"
        }
      ],
      "stateMutability": "view",
      "type": "function",
      "constant": true
    },
    {
      "inputs": [
        {
          "internalType": "uint256",
          "name": "_wasteId",
          "type": "uint256"
        },
        {
          "internalType": "enum ComplianceAudit.ComplianceStatus",
          "name": "_status",
          "type": "uint8"
        },
        {
          "internalType": "string",
          "name": "_details",
          "type": "string"
        },
        {
          "internalType": "string",
          "name": "_evidenceHash",
          "type": "string"
        }
      ],
      "name": "logAudit",
      "outputs": [],
      "stateMutability": "nonpayable",
      "type": "function"
    },
    {
      "inputs": [
        {
          "internalType": "uint256",
          "name": "_wasteId",
          "type": "uint256"
        },
        {
          "internalType": "string",
          "name": "_certificateHash",
          "type": "string"
        },
        {
          "internalType": "address",
          "name": "_recipient",
          "type": "address"
        }
      ],
      "name": "issueCertificate",
      "outputs": [],
      "stateMutability": "nonpayable",
      "type": "function"
    },
    {
      "inputs": [
        {
          "internalType": "uint256",
          "name": "_wasteId",
          "type": "uint256"
        }
      ],
      "name": "getAuditsByWasteId",
      "outputs": [
        {
          "internalType": "uint256[]",
          "name": "",
          "type": "uint256[]"
        }
      ],
      "stateMutability": "view",
      "type": "function",
      "constant": true
    },
    {
      "inputs": [
        {
          "internalType": "enum ComplianceAudit.ComplianceStatus",
          "name": "_status",
          "type": "uint8"
        }
      ],
      "name": "getAuditsByStatus",
      "outputs": [
        {
          "internalType": "uint256[]",
          "name": "",
          "type": "uint256[]"
        }
      ],
      "stateMutability": "view",
      "type": "function",
      "constant": true
    },
    {
      "inputs": [
        {
          "internalType": "uint256",
          "name": "_auditId",
          "type": "uint256"
        }
      ],
      "name": "getAuditDetails",
      "outputs": [
        {
          "internalType": "uint256",
          "name": "id",
          "type": "uint256"
        },
        {
          "internalType": "uint256",
          "name": "wasteId",
          "type": "uint256"
        },
        {
          "internalType": "enum ComplianceAudit.ComplianceStatus",
          "name": "complianceStatus",
          "type": "uint8"
        },
        {
          "internalType": "string",
          "name": "details",
          "type": "string"
        },
        {
          "internalType": "string",
          "name": "evidenceHash",
          "type": "string"
        },
        {
          "internalType": "address",
          "name": "auditor",
          "type": "address"
        },
        {
          "internalType": "uint256",
          "name": "auditedAt",
          "type": "uint256"
        }
      ],
      "stateMutability": "view",
      "type": "function",
      "constant": true
    }
  ],
  "bytecode": "0x60806040523480156200001157600080fd5b5060405162001a3138038062001a318339810160408190526200003491620000a7565b600080546001600160a01b03199081166001600160a01b03968716178255600180548216958716959095179094556002805485169386169390931790925560038054909316931692909217905560055562000103565b80516001600160a01b0381168114620000a257600080fd5b919050565b60008060008060808587031215620000bd578384fd5b620000c8856200008a565b9350620000d8602086016200008a565b9250620000e8604086016200008a565b9150620000f8606086016200008a565b905092959194509250565b61191e80620001136000396000f3fe608060405234801561001057600080fd5b50600436106100a95760003560e01c8063a234e65f11610071578063a234e65f1461011e578063a376e7cc14610126578063b1ccbc0a14610139578063b60e73db1461015f578063ee7aca4714610172578063fbc7de921461017a576100a9565b806323718a8c146100ae5780634535c698146100cc57806360c13b8a146100ec5780636a767f50146101015780639b5e847c14610116575b600080fd5b6100b661018d565b6040516100c3919061168d565b60405180910390f35b6100df6100da366004611183565b610193565b6040516100c391906114b5565b6100ff6100fa366004611216565b6102b1565b005b610109610535565b6040516100c391906114a1565b610109610544565b610109610553565b6100df610134366004611143565b610562565b61014c610147366004611183565b6106f6565b6040516100c39796959493929190611716565b61014c61016d366004611183565b610923565b610109610a7e565b6100ff61018836600461119b565b610a8d565b60055481565b6060600060015b60055481116101dc576000818152600460205260409020600101548414156101ca57816101c681611893565b9250505b806101d481611893565b91505061019a565b5060008167ffffffffffffffff81111561020657634e487b7160e01b600052604160045260246000fd5b60405190808252806020026020018201604052801561022f578160200160208202803683370190505b509050600060015b60055481116102a557600081815260046020526040902060010154861415610293578083838151811061027a57634e487b7160e01b600052603260045260246000fd5b60209081029190910101528161028f81611893565b9250505b8061029d81611893565b915050610237565b5090925050505b919050565b600054604051632782085160e01b81526003916001600160a01b0316906327820851906102e29033906004016114a1565b60206040518083038186803b1580156102fa57600080fd5b505afa15801561030e573d6000803e3d6000fd5b505050506040513d601f19601f820116820180604052508101906103329190611164565b600481111561035157634e487b7160e01b600052602160045260246000fd5b146103775760405162461bcd60e51b815260040161036e90611600565b60405180910390fd5b6001600160a01b03811661039d5760405162461bcd60e51b815260040161036e90611656565b6002546040516303678e5b60e11b81526000916001600160a01b0316906306cf1cb6906103ce90879060040161168d565b60006040518083038186803b1580156103e657600080fd5b505afa1580156103fa573d6000803e3d6000fd5b505050506040513d6000823e601f3d908101601f191682016040526104229190810190611361565b99505050505050505050508061044a5760405162461bcd60e51b815260040161036e906114f9565b600060015b60055481116104cb57600081815260046020526040902060010154861480156104ab5750600160008281526004602052604090206002015460ff1660038111156104a957634e487b7160e01b600052602160045260246000fd5b145b156104b957600191506104cb565b806104c381611893565b91505061044f565b50806104e95760405162461bcd60e51b815260040161036e906115ad565b826001600160a01b03167f3898d3b89bbe6b70b35d0de31978d1521ec55404ee14592f253ea8a0c5e97247868642604051610526939291906116af565b60405180910390a25050505050565b6000546001600160a01b031681565b6002546001600160a01b031681565b6003546001600160a01b031681565b6060600060015b60055481116105ec5783600381111561059257634e487b7160e01b600052602160045260246000fd5b60008281526004602052604090206002015460ff1660038111156105c657634e487b7160e01b600052602160045260246000fd5b14156105da57816105d681611893565b9250505b806105e481611893565b915050610569565b5060008167ffffffffffffffff81111561061657634e487b7160e01b600052604160045260246000fd5b60405190808252806020026020018201604052801561063f578160200160208202803683370190505b509050600060015b60055481116102a55785600381111561067057634e487b7160e01b600052602160045260246000fd5b60008281526004602052604090206002015460ff1660038111156106a457634e487b7160e01b600052602160045260246000fd5b14156106e457808383815181106106cb57634e487b7160e01b600052603260045260246000fd5b6020908102919091010152816106e081611893565b9250505b806106ee81611893565b915050610647565b600080600060608060008060008811801561071357506005548811155b61072f5760405162461bcd60e51b815260040161036e9061154c565b6000888152600460209081526040808320815160e081018352815481526001820154938101939093526002810154909183019060ff16600381111561078457634e487b7160e01b600052602160045260246000fd5b60038111156107a357634e487b7160e01b600052602160045260246000fd5b81526020016003820180546107b790611858565b80601f01602080910402602001604051908101604052809291908181526020018280546107e390611858565b80156108305780601f1061080557610100808354040283529160200191610830565b820191906000526020600020905b81548152906001019060200180831161081357829003601f168201915b5050505050815260200160048201805461084990611858565b80601f016020809104026020016040519081016040528092919081815260200182805461087590611858565b80156108c25780601f10610897576101008083540402835291602001916108c2565b820191906000526020600020905b8154815290600101906020018083116108a557829003601f168201915b505050918352505060058201546001600160a01b0316602080830191909152600690920154604091820152825191830151908301516060840151608085015160a086015160c090960151949f939e50919c509a509850919650945092505050565b60046020526000908152604090208054600182015460028301546003840180549394929360ff909216929161095790611858565b80601f016020809104026020016040519081016040528092919081815260200182805461098390611858565b80156109d05780601f106109a5576101008083540402835291602001916109d0565b820191906000526020600020905b8154815290600101906020018083116109b357829003601f168201915b5050505050908060040180546109e590611858565b80601f0160208091040260200160405190810160405280929190818152602001828054610a1190611858565b8015610a5e5780601f10610a3357610100808354040283529160200191610a5e565b820191906000526020600020905b815481529060010190602001808311610a4157829003601f168201915b50505050600583015460069093015491926001600160a01b031691905087565b6001546001600160a01b031681565b600054604051632782085160e01b81526003916001600160a01b031690632782085190610abe9033906004016114a1565b60206040518083038186803b158015610ad657600080fd5b505afa158015610aea573d6000803e3d6000fd5b505050506040513d601f19601f82011682018060405250810190610b0e9190611164565b6004811115610b2d57634e487b7160e01b600052602160045260246000fd5b14610b4a5760405162461bcd60e51b815260040161036e90611600565b6002546040516303678e5b60e11b81526000918291829182916001600160a01b03909116906306cf1cb690610b83908b9060040161168d565b60006040518083038186803b158015610b9b57600080fd5b505afa158015610baf573d6000803e3d6000fd5b505050506040513d6000823e601f3d908101601f19168201604052610bd79190810190611361565b995099505098505050505050935060008411610c055760405162461bcd60e51b815260040161036e90611576565b600154604051630299348760e21b815260009182916001600160a01b0390911690630a64d21c90610c3a908d9060040161168d565b60006040518083038186803b158015610c5257600080fd5b505afa925050508015610c8757506040513d6000823e601f3d908101601f19168201604052610c84919081019061126f565b60015b610c9057610c9f565b969a5095985050505050505050505b60058054906000610caf83611893565b91905055506040518060e0016040528060055481526020018b81526020018a6003811115610ced57634e487b7160e01b600052602160045260246000fd5b8152602001898152602001888152602001336001600160a01b0316815260200142815250600460006005548152602001908152602001600020600082015181600001556020820151816001015560408201518160020160006101000a81548160ff02191690836003811115610d7257634e487b7160e01b600052602160045260246000fd5b021790555060608201518051610d92916003840191602090910190610f19565b5060808201518051610dae916004840191602090910190610f19565b5060a0820151600582810180546001600160a01b0319166001600160a01b039093169290921790915560c0909201516006909101555460405133917fae741ce308cb49d6c69c770a9d34f042366d4764186f98ead55db83401ae9f1d91610e1d91908e908e908e904290611774565b60405180910390a26002896003811115610e4757634e487b7160e01b600052602160045260246000fd5b1415610f0d57836001600160a01b03831615801590610e6557508582115b15610ebd57829050336001600160a01b0316816001600160a01b03167f210d3b3d78806ef370592ef8a906ef83027a30b29aa8711088ef1a2a7f2b146c8d604051610eb091906116d8565b60405180910390a3610f0b565b336001600160a01b0316816001600160a01b03167f210d3b3d78806ef370592ef8a906ef83027a30b29aa8711088ef1a2a7f2b146c8d8c604051610f02929190611696565b60405180910390a35b505b50505050505050505050565b828054610f2590611858565b90600052602060002090601f016020900481019282610f475760008555610f8d565b82601f10610f6057805160ff1916838001178555610f8d565b82800160010185558215610f8d579182015b82811115610f8d578251825591602001919060010190610f72565b50610f99929150610f9d565b5090565b5b80821115610f995760008155600101610f9e565b80516102ac816118d0565b600082601f830112610fcd578081fd5b81516020610fe2610fdd836117dc565b6117b2565b82815281810190858301855b8581101561101757611005898684518b01016110f8565b84529284019290840190600101610fee565b5090979650505050505050565b600082601f830112611034578081fd5b81516020611044610fdd836117dc565b8281528181019085830183850287018401881015611060578586fd5b855b8581101561101757815184529284019290840190600101611062565b805180151581146102ac57600080fd5b8035600481106102ac57600080fd5b8051600381106102ac57600080fd5b600082601f8301126110bc578081fd5b81356110ca610fdd82611800565b8181528460208386010111156110de578283fd5b816020850160208301379081016020019190915292915050565b600082601f830112611108578081fd5b8151611116610fdd82611800565b81815284602083860101111561112a578283fd5b61113b826020830160208701611828565b949350505050565b600060208284031215611154578081fd5b61115d8261108e565b9392505050565b600060208284031215611175578081fd5b81516005811061115d578182fd5b600060208284031215611194578081fd5b5035919050565b600080600080608085870312156111b0578283fd5b843593506111c06020860161108e565b9250604085013567ffffffffffffffff808211156111dc578384fd5b6111e8888389016110ac565b935060608701359150808211156111fd578283fd5b5061120a878288016110ac565b91505092959194509250565b60008060006060848603121561122a578283fd5b83359250602084013567ffffffffffffffff811115611247578283fd5b611253868287016110ac565b9250506040840135611264816118d0565b809150509250925092565b6000806000806000806000806000806101408b8d03121561128e578586fd5b8a51995060208b015167ffffffffffffffff808211156112ac578788fd5b6112b88e838f016110f8565b9a506112c660408e01610fb2565b99506112d460608e0161109d565b985060808d0151975060a08d01519150808211156112f0578687fd5b6112fc8e838f01610fbd565b965060c08d0151915080821115611311578586fd5b61131d8e838f01611024565b955060e08d0151915080821115611332578485fd5b5061133f8d828e016110f8565b9350506101008b015191506101208b015190509295989b9194979a5092959850565b6000806000806000806000806000806101408b8d031215611380578384fd5b8a51995060208b015167ffffffffffffffff8082111561139e578586fd5b6113aa8e838f016110f8565b9a5060408d01519150808211156113bf578586fd5b6113cb8e838f016110f8565b995060608d0151985060808d01519150808211156113e7578586fd5b6113f38e838f016110f8565b975060a08d0151915080821115611408578586fd5b506114158d828e016110f8565b95505060c08b0151935060e08b015192506114336101008c01610fb2565b91506114426101208c0161107e565b90509295989b9194979a5092959850565b6004811061147157634e487b7160e01b600052602160045260246000fd5b9052565b6000815180845261148d816020860160208601611828565b601f01601f19169290920160200192915050565b6001600160a01b0391909116815260200190565b6020808252825182820181905260009190848201906040850190845b818110156114ed578351835292840192918401916001016114d1565b50909695505050505050565b60208082526033908201527f43616e6e6f742069737375652063657274696669636174653a207761737465206040820152721b9bdd08199d5b1b1e481c1c9bd8d95cdcd959606a1b606082015260800190565b60208082526010908201526f125b9d985b1a5908185d591a5d08125160821b604082015260600190565b6020808252601a908201527f5761737465206974656d20646f6573206e6f742065786973742e000000000000604082015260600190565b60208082526033908201527f43616e6e6f742069737375652063657274696669636174653a206e6f20636f6d6040820152721c1b1a585b9d08185d591a5d081c9958dbdc99606a1b606082015260800190565b60208082526036908201527f556e617574686f72697a65643a204f6e6c7920726567756c61746f727320636160408201527537103832b93337b936903a3434b99030b1ba34b7b71760511b606082015260800190565b60208082526019908201527f496e76616c696420726563697069656e74206164647265737300000000000000604082015260600190565b90815260200190565b60008382526040602083015261113b6040830184611475565b6000848252606060208301526116c86060830185611475565b9050826040830152949350505050565b9081526040602082018190526019908201527f52656379636c696e67206d697373656420646561646c696e6500000000000000606082015260800190565b600088825287602083015261172e6040830188611453565b60e0606083015261174260e0830187611475565b82810360808401526117548187611475565b6001600160a01b039590951660a0840152505060c0015295945050505050565b600086825285602083015261178c6040830186611453565b60a060608301526117a060a0830185611475565b90508260808301529695505050505050565b60405181810167ffffffffffffffff811182821017156117d4576117d46118ba565b604052919050565b600067ffffffffffffffff8211156117f6576117f66118ba565b5060209081020190565b600067ffffffffffffffff82111561181a5761181a6118ba565b50601f01601f191660200190565b60005b8381101561184357818101518382015260200161182b565b83811115611852576000848401525b50505050565b60028104600182168061186c57607f821691505b6020821081141561188d57634e487b7160e01b600052602260045260246000fd5b50919050565b60006000198214156118b357634e487b7160e01b81526011600452602481fd5b5060010190565b634e487b7160e01b600052604160045260246000fd5b6001600160a01b03811681146118e557600080fd5b5056fea2646970667358221220497a2e2e074486b1171258477bbcbf549ae27d211878e1b138d6e53643a80af964736f6c63430008000033",
  "immutableReferences": {},
  "source": "// SPDX-License-Identifier: MIT\r\npragma solidity ^0.8.0;\r\n\r\nimport \"./UserManagement.sol\";\r\nimport \"./RecyclingManagement.sol\";\r\nimport \"./eWasteTracking.sol\";\r\nimport \"./LogisticsTracking.sol\";\r\n\r\ncontract ComplianceAudit {\r\n    UserManagement public userManagement;\r\n    RecyclingManagement public recycler;\r\n    eWasteTracking public eWasteTracker;\r\n    LogisticsTracking public logisticsTracker;\r\n\r\n    enum ComplianceStatus { Pending, Compliant, NonCompliant, Warning }\r\n\r\n    struct AuditRecord {\r\n        uint id;\r\n        uint wasteId;\r\n        ComplianceStatus complianceStatus;\r\n        string details;\r\n        string evidenceHash;\r\n        address auditor;\r\n        uint256 auditedAt;\r\n    }\r\n\r\n    mapping(uint => AuditRecord) public audits;\r\n    uint public auditCounter;\r\n    \r\n    // Events\r\n    event AuditLogged(\r\n        uint id,\r\n        uint wasteId, \r\n        ComplianceStatus status, \r\n        string details,\r\n        address indexed auditor,\r\n        uint256 auditedAt\r\n    );\r\n    event NonComplianceLogged(\r\n        uint wasteId, \r\n        address indexed responsible, \r\n        string details, \r\n        address indexed auditor\r\n    );\r\n    event CertificateIssued(\r\n        uint wasteId, \r\n        string certificateHash, \r\n        address indexed recipient, \r\n        uint256 issuedAt\r\n    );\r\n\r\n    constructor(\r\n        address _userManagementAddress,\r\n        address _recyclerAddress,\r\n        address _eWasteTrackerAddress,\r\n        address _logisticsTrackerAddress\r\n    ) {\r\n        userManagement = UserManagement(_userManagementAddress);\r\n        recycler = RecyclingManagement(_recyclerAddress);\r\n        eWasteTracker = eWasteTracking(_eWasteTrackerAddress);\r\n        logisticsTracker = LogisticsTracking(_logisticsTrackerAddress);\r\n        auditCounter = 0;\r\n    }\r\n\r\n    modifier onlyRegulator() {\r\n        require(\r\n            userManagement.getUserRole(msg.sender) == UserManagement.Role.Regulator,\r\n            \"Unauthorized: Only regulators can perform this action.\"\r\n        );\r\n        _;\r\n    }\r\n\r\n    function logAudit(\r\n        uint _wasteId, \r\n        ComplianceStatus _status, \r\n        string memory _details,\r\n        string memory _evidenceHash\r\n    ) external onlyRegulator {\r\n        // Verify waste item exists\r\n        (\r\n            uint wasteId,\r\n            , // wasteType - unused\r\n            , // origin - unused\r\n            , // quantity - unused\r\n            , // description - unused\r\n            , // imageHash - unused\r\n            uint256 deadline,\r\n            , // loggedAt - unused\r\n            address producer,\r\n            bool isProcessed\r\n        ) = eWasteTracker.getWasteItem(_wasteId);\r\n        \r\n        require(wasteId > 0, \"Waste item does not exist.\");\r\n        \r\n        // Get recycling data if available\r\n        address recyclerAddress;\r\n        uint256 recycledAt;\r\n        try recycler.getRecycledItem(_wasteId) returns (\r\n            uint _wasteId_unused,\r\n            string memory _method_unused,\r\n            address _recycler,\r\n            RecyclingManagement.RecyclingStatus _status_unused,\r\n            uint _progressPercentage_unused,\r\n            string[] memory _materialRecovered_unused,\r\n            uint[] memory _materialQuantities_unused,\r\n            string memory _evidenceHash_unused,\r\n            uint256 _startedAt_unused,\r\n            uint256 _completedAt\r\n        ) {\r\n            recyclerAddress = _recycler;\r\n            recycledAt = _completedAt;\r\n        } catch {\r\n            // No recycling data, which is fine\r\n        }\r\n        \r\n        auditCounter++;\r\n        \r\n        // Create audit record\r\n        audits[auditCounter] = AuditRecord({\r\n            id: auditCounter,\r\n            wasteId: _wasteId,\r\n            complianceStatus: _status,\r\n            details: _details,\r\n            evidenceHash: _evidenceHash,\r\n            auditor: msg.sender,\r\n            auditedAt: block.timestamp\r\n        });\r\n        \r\n        emit AuditLogged(\r\n            auditCounter,\r\n            _wasteId, \r\n            _status, \r\n            _details,\r\n            msg.sender,\r\n            block.timestamp\r\n        );\r\n        \r\n        // Check for non-compliance situations\r\n        if (_status == ComplianceStatus.NonCompliant) {\r\n            address responsible = producer; // Default to producer\r\n            \r\n            if (recyclerAddress != address(0) && recycledAt > deadline) {\r\n                // Recycler missed deadline\r\n                responsible = recyclerAddress;\r\n                emit NonComplianceLogged(\r\n                    _wasteId, \r\n                    responsible, \r\n                    \"Recycling missed deadline\", \r\n                    msg.sender\r\n                );\r\n            } else {\r\n                // Producer is responsible for other non-compliance\r\n                emit NonComplianceLogged(\r\n                    _wasteId, \r\n                    responsible, \r\n                    _details, \r\n                    msg.sender\r\n                );\r\n            }\r\n        }\r\n    }\r\n\r\n    function issueCertificate(\r\n        uint _wasteId, \r\n        string memory _certificateHash, \r\n        address _recipient\r\n    ) external onlyRegulator {\r\n        require(\r\n            _recipient != address(0), \r\n            \"Invalid recipient address\"\r\n        );\r\n        \r\n        // Verify waste is processed\r\n        (\r\n            , // id - unused\r\n            , // wasteType - unused\r\n            , // origin - unused\r\n            , // quantity - unused\r\n            , // description - unused\r\n            , // imageHash - unused\r\n            , // deadline - unused\r\n            , // loggedAt - unused\r\n            , // producer - unused\r\n            bool isProcessed\r\n        ) = eWasteTracker.getWasteItem(_wasteId);\r\n        \r\n        require(isProcessed, \"Cannot issue certificate: waste not fully processed\");\r\n        \r\n        // Check if there's an audit record for compliance\r\n        bool foundCompliantAudit = false;\r\n        for (uint i = 1; i <= auditCounter; i++) {\r\n            if (audits[i].wasteId == _wasteId && audits[i].complianceStatus == ComplianceStatus.Compliant) {\r\n                foundCompliantAudit = true;\r\n                break;\r\n            }\r\n        }\r\n        \r\n        require(foundCompliantAudit, \"Cannot issue certificate: no compliant audit record\");\r\n        \r\n        emit CertificateIssued(\r\n            _wasteId, \r\n            _certificateHash, \r\n            _recipient, \r\n            block.timestamp\r\n        );\r\n    }\r\n\r\n    function getAuditsByWasteId(uint _wasteId) external view returns (uint[] memory) {\r\n        uint count = 0;\r\n        \r\n        // Count audits for this waste\r\n        for (uint i = 1; i <= auditCounter; i++) {\r\n            if (audits[i].wasteId == _wasteId) {\r\n                count++;\r\n            }\r\n        }\r\n        \r\n        // Create array of IDs\r\n        uint[] memory result = new uint[](count);\r\n        uint index = 0;\r\n        \r\n        // Fill array with IDs\r\n        for (uint i = 1; i <= auditCounter; i++) {\r\n            if (audits[i].wasteId == _wasteId) {\r\n                result[index] = i;\r\n                index++;\r\n            }\r\n        }\r\n        \r\n        return result;\r\n    }\r\n\r\n    function getAuditsByStatus(ComplianceStatus _status) external view returns (uint[] memory) {\r\n        uint count = 0;\r\n        \r\n        // Count audits with this status\r\n        for (uint i = 1; i <= auditCounter; i++) {\r\n            if (audits[i].complianceStatus == _status) {\r\n                count++;\r\n            }\r\n        }\r\n        \r\n        // Create array of IDs\r\n        uint[] memory result = new uint[](count);\r\n        uint index = 0;\r\n        \r\n        // Fill array with IDs\r\n        for (uint i = 1; i <= auditCounter; i++) {\r\n            if (audits[i].complianceStatus == _status) {\r\n                result[index] = i;\r\n                index++;\r\n            }\r\n        }\r\n        \r\n        return result;\r\n    }\r\n\r\n    function getAuditDetails(uint _auditId) external view returns (\r\n        uint id,\r\n        uint wasteId,\r\n        ComplianceStatus complianceStatus,\r\n        string memory details,\r\n        string memory evidenceHash,\r\n        address auditor,\r\n        uint256 auditedAt\r\n    ) {\r\n        require(_auditId > 0 && _auditId <= auditCounter, \"Invalid audit ID\");\r\n        \r\n        AuditRecord memory audit = audits[_auditId];\r\n        \r\n        return (\r\n            audit.id,\r\n            audit.wasteId,\r\n            audit.complianceStatus,\r\n            audit.details,\r\n            audit.evidenceHash,\r\n            audit.auditor,\r\n            audit.auditedAt\r\n        );\r\n    }\r\n}",
  "sourcePath": "D:\\project\\ewaste v3\\contracts\\ComplianceAudit.sol",
  "compiler": {
    "name": "solc",
    "version": "0.8.0+commit.c7dfd78e.Emscripten.clang"
  },
  "schemaVersion": "3.4.16",
  "updatedAt": "2025-05-11T23:13:54.970Z",
  "networkType": "ethereum",
  "devdoc": {
    "kind": "dev",
    "methods": {},
    "version": 1
  },
  "userdoc": {
    "kind": "user",
    "methods": {},
    "version": 1
  }
}