{
  "contractName": "eWasteTracking",
  "abi": [
    {
      "inputs": [
        {
          "internalType": "address",
          "name": "_userManagementAddress",
          "type": "address"
        }
      ],
      "stateMutability": "nonpayable",
      "type": "constructor"
    },
    {
      "anonymous": false,
      "inputs": [
        {
          "indexed": false,
          "internalType": "uint256",
          "name": "id",
          "type": "uint256"
        },
        {
          "indexed": false,
          "internalType": "string",
          "name": "wasteType",
          "type": "string"
        },
        {
          "indexed": false,
          "internalType": "string",
          "name": "origin",
          "type": "string"
        },
        {
          "indexed": false,
          "internalType": "uint256",
          "name": "quantity",
          "type": "uint256"
        },
        {
          "indexed": false,
          "internalType": "string",
          "name": "description",
          "type": "string"
        },
        {
          "indexed": false,
          "internalType": "string",
          "name": "imageHash",
          "type": "string"
        },
        {
          "indexed": false,
          "internalType": "uint256",
          "name": "deadline",
          "type": "uint256"
        },
        {
          "indexed": true,
          "internalType": "address",
          "name": "producer",
          "type": "address"
        }
      ],
      "name": "WasteLogged",
      "type": "event"
    },
    {
      "anonymous": false,
      "inputs": [
        {
          "indexed": false,
          "internalType": "uint256",
          "name": "id",
          "type": "uint256"
        },
        {
          "indexed": true,
          "internalType": "address",
          "name": "recycler",
          "type": "address"
        }
      ],
      "name": "WasteProcessed",
      "type": "event"
    },
    {
      "anonymous": false,
      "inputs": [
        {
          "indexed": false,
          "internalType": "uint256",
          "name": "id",
          "type": "uint256"
        },
        {
          "indexed": false,
          "internalType": "string",
          "name": "field",
          "type": "string"
        },
        {
          "indexed": false,
          "internalType": "string",
          "name": "newValue",
          "type": "string"
        }
      ],
      "name": "WasteUpdated",
      "type": "event"
    },
    {
      "inputs": [],
      "name": "userManagement",
      "outputs": [
        {
          "internalType": "contract UserManagement",
          "name": "",
          "type": "address"
        }
      ],
      "stateMutability": "view",
      "type": "function",
      "constant": true
    },
    {
      "inputs": [],
      "name": "wasteCounter",
      "outputs": [
        {
          "internalType": "uint256",
          "name": "",
          "type": "uint256"
        }
      ],
      "stateMutability": "view",
      "type": "function",
      "constant": true
    },
    {
      "inputs": [
        {
          "internalType": "uint256",
          "name": "",
          "type": "uint256"
        }
      ],
      "name": "wasteRecords",
      "outputs": [
        {
          "internalType": "uint256",
          "name": "id",
          "type": "uint256"
        },
        {
          "internalType": "string",
          "name": "wasteType",
          "type": "string"
        },
        {
          "internalType": "string",
          "name": "origin",
          "type": "string"
        },
        {
          "internalType": "uint256",
          "name": "quantity",
          "type": "uint256"
        },
        {
          "internalType": "string",
          "name": "description",
          "type": "string"
        },
        {
          "internalType": "string",
          "name": "imageHash",
          "type": "string"
        },
        {
          "internalType": "uint256",
          "name": "deadline",
          "type": "uint256"
        },
        {
          "internalType": "uint256",
          "name": "loggedAt",
          "type": "uint256"
        },
        {
          "internalType": "address",
          "name": "producer",
          "type": "address"
        },
        {
          "internalType": "bool",
          "name": "isProcessed",
          "type": "bool"
        }
      ],
      "stateMutability": "view",
      "type": "function",
      "constant": true
    },
    {
      "inputs": [
        {
          "internalType": "string",
          "name": "_wasteType",
          "type": "string"
        },
        {
          "internalType": "string",
          "name": "_origin",
          "type": "string"
        },
        {
          "internalType": "uint256",
          "name": "_quantity",
          "type": "uint256"
        },
        {
          "internalType": "string",
          "name": "_description",
          "type": "string"
        },
        {
          "internalType": "string",
          "name": "_imageHash",
          "type": "string"
        },
        {
          "internalType": "uint256",
          "name": "_deadline",
          "type": "uint256"
        }
      ],
      "name": "logWaste",
      "outputs": [],
      "stateMutability": "nonpayable",
      "type": "function"
    },
    {
      "inputs": [
        {
          "internalType": "uint256",
          "name": "_id",
          "type": "uint256"
        }
      ],
      "name": "markAsProcessed",
      "outputs": [],
      "stateMutability": "nonpayable",
      "type": "function"
    },
    {
      "inputs": [
        {
          "internalType": "uint256",
          "name": "_id",
          "type": "uint256"
        },
        {
          "internalType": "string",
          "name": "_field",
          "type": "string"
        },
        {
          "internalType": "string",
          "name": "_value",
          "type": "string"
        }
      ],
      "name": "updateWasteDetails",
      "outputs": [],
      "stateMutability": "nonpayable",
      "type": "function"
    },
    {
      "inputs": [
        {
          "internalType": "uint256",
          "name": "_id",
          "type": "uint256"
        }
      ],
      "name": "getWasteItem",
      "outputs": [
        {
          "internalType": "uint256",
          "name": "id",
          "type": "uint256"
        },
        {
          "internalType": "string",
          "name": "wasteType",
          "type": "string"
        },
        {
          "internalType": "string",
          "name": "origin",
          "type": "string"
        },
        {
          "internalType": "uint256",
          "name": "quantity",
          "type": "uint256"
        },
        {
          "internalType": "string",
          "name": "description",
          "type": "string"
        },
        {
          "internalType": "string",
          "name": "imageHash",
          "type": "string"
        },
        {
          "internalType": "uint256",
          "name": "deadline",
          "type": "uint256"
        },
        {
          "internalType": "uint256",
          "name": "loggedAt",
          "type": "uint256"
        },
        {
          "internalType": "address",
          "name": "producer",
          "type": "address"
        },
        {
          "internalType": "bool",
          "name": "isProcessed",
          "type": "bool"
        }
      ],
      "stateMutability": "view",
      "type": "function",
      "constant": true
    },
    {
      "inputs": [
        {
          "internalType": "address",
          "name": "_producer",
          "type": "address"
        }
      ],
      "name": "getWasteItemsByProducer",
      "outputs": [
        {
          "internalType": "uint256[]",
          "name": "",
          "type": "uint256[]"
        }
      ],
      "stateMutability": "view",
      "type": "function",
      "constant": true
    },
    {
      "inputs": [],
      "name": "getAllWasteItems",
      "outputs": [
        {
          "internalType": "uint256[]",
          "name": "",
          "type": "uint256[]"
        }
      ],
      "stateMutability": "view",
      "type": "function",
      "constant": true
    }
  ],
  "bytecode": "0x608060405234801561001057600080fd5b5060405161190d38038061190d83398101604081905261002f91610057565b600080546001600160a01b0319166001600160a01b0392909216919091178155600255610085565b600060208284031215610068578081fd5b81516001600160a01b038116811461007e578182fd5b9392505050565b611879806100946000396000f3fe608060405234801561001057600080fd5b50600436106100935760003560e01c80635c3a4c70116100665780635c3a4c70146101075780636a767f501461011a5780637b3598211461012f578063f3eaae231461014f578063f9a3e3451461015757610093565b806306cf1cb6146100985780631250b952146100ca578063247ab51f146100dd57806324d594ed146100f2575b600080fd5b6100ab6100a63660046112f4565b61016a565b6040516100c19a99989796959493929190611717565b60405180910390f35b6100ab6100d83660046112f4565b6104b1565b6100f06100eb3660046112f4565b61072e565b005b6100fa6108ae565b6040516100c1919061166b565b6100f061011536600461123a565b6108b4565b610122610b4a565b6040516100c191906113c1565b61014261013d3660046111ed565b610b59565b6040516100c191906113d5565b610142610c9d565b6100f061016536600461130c565b610d50565b600060608060006060806000806000806000600160008d815260200190815260200160002060405180610140016040529081600082015481526020016001820180546101b5906117c1565b80601f01602080910402602001604051908101604052809291908181526020018280546101e1906117c1565b801561022e5780601f106102035761010080835404028352916020019161022e565b820191906000526020600020905b81548152906001019060200180831161021157829003601f168201915b50505050508152602001600282018054610247906117c1565b80601f0160208091040260200160405190810160405280929190818152602001828054610273906117c1565b80156102c05780601f10610295576101008083540402835291602001916102c0565b820191906000526020600020905b8154815290600101906020018083116102a357829003601f168201915b50505050508152602001600382015481526020016004820180546102e3906117c1565b80601f016020809104026020016040519081016040528092919081815260200182805461030f906117c1565b801561035c5780601f106103315761010080835404028352916020019161035c565b820191906000526020600020905b81548152906001019060200180831161033f57829003601f168201915b50505050508152602001600582018054610375906117c1565b80601f01602080910402602001604051908101604052809291908181526020018280546103a1906117c1565b80156103ee5780601f106103c3576101008083540402835291602001916103ee565b820191906000526020600020905b8154815290600101906020018083116103d157829003601f168201915b505050918352505060068201546020820152600782015460408201526008909101546001600160a01b0381166060830152600160a01b900460ff161515608090910152805190915061045b5760405162461bcd60e51b815260040161045290611450565b60405180910390fd5b806000015181602001518260400151836060015184608001518560a001518660c001518760e001518861010001518961012001519a509a509a509a509a509a509a509a509a509a50509193959799509193959799565b6001602081905260009182526040909120805491810180546104d2906117c1565b80601f01602080910402602001604051908101604052809291908181526020018280546104fe906117c1565b801561054b5780601f106105205761010080835404028352916020019161054b565b820191906000526020600020905b81548152906001019060200180831161052e57829003601f168201915b505050505090806002018054610560906117c1565b80601f016020809104026020016040519081016040528092919081815260200182805461058c906117c1565b80156105d95780601f106105ae576101008083540402835291602001916105d9565b820191906000526020600020905b8154815290600101906020018083116105bc57829003601f168201915b5050505050908060030154908060040180546105f4906117c1565b80601f0160208091040260200160405190810160405280929190818152602001828054610620906117c1565b801561066d5780601f106106425761010080835404028352916020019161066d565b820191906000526020600020905b81548152906001019060200180831161065057829003601f168201915b505050505090806005018054610682906117c1565b80601f01602080910402602001604051908101604052809291908181526020018280546106ae906117c1565b80156106fb5780601f106106d0576101008083540402835291602001916106fb565b820191906000526020600020905b8154815290600101906020018083116106de57829003601f168201915b5050505060068301546007840154600890940154929390929091506001600160a01b03811690600160a01b900460ff168a565b600054604051632782085160e01b81526001916001600160a01b03169063278208519061075f9033906004016113c1565b60206040518083038186803b15801561077757600080fd5b505afa15801561078b573d6000803e3d6000fd5b505050506040513d601f19601f820116820180604052508101906107af919061121b565b60048111156107ce57634e487b7160e01b600052602160045260246000fd5b146107eb5760405162461bcd60e51b81526004016104529061158c565b6000818152600160205260409020546108165760405162461bcd60e51b815260040161045290611450565b600081815260016020526040902060080154600160a01b900460ff161561084f5760405162461bcd60e51b8152600401610452906114ca565b60008181526001602052604090819020600801805460ff60a01b1916600160a01b1790555133907f4f964cb8ee62b4ab28ad49d8cf9f198f96c2923339c41697bb02c87aaed2e708906108a390849061166b565b60405180910390a250565b60025481565b60008054604051632782085160e01b81526001600160a01b03909116906327820851906108e59033906004016113c1565b60206040518083038186803b1580156108fd57600080fd5b505afa158015610911573d6000803e3d6000fd5b505050506040513d601f19601f82011682018060405250810190610935919061121b565b600481111561095457634e487b7160e01b600052602160045260246000fd5b146109715760405162461bcd60e51b815260040161045290611538565b600084116109915760405162461bcd60e51b815260040161045290611487565b4281116109b05760405162461bcd60e51b815260040161045290611501565b600280549060006109c0836117fc565b9091555050604080516101408101825260025480825260208083018a81528385018a9052606084018990526080840188905260a0840187905260c084018690524260e08501523361010085015260006101208501819052928352600180835294909220835181559151805193949293610a409385019291909101906110d3565b5060408201518051610a5c9160028401916020909101906110d3565b506060820151600382015560808201518051610a829160048401916020909101906110d3565b5060a08201518051610a9e9160058401916020909101906110d3565b5060c0820151600682015560e0820151600782015561010082015160089091018054610120909301511515600160a01b0260ff60a01b196001600160a01b039093166001600160a01b0319909416939093179190911691909117905560025460405133917f90777e50ad058d156aea3492296d72b964af05da39555a4a310cf0448c7ce7cb91610b3a91908a908a908a908a908a908a906116a9565b60405180910390a2505050505050565b6000546001600160a01b031681565b6060600060015b6002548111610bae576000818152600160205260409020600801546001600160a01b0385811691161415610b9c5781610b98816117fc565b9250505b80610ba6816117fc565b915050610b60565b5060008167ffffffffffffffff811115610bd857634e487b7160e01b600052604160045260246000fd5b604051908082528060200260200182016040528015610c01578160200160208202803683370190505b509050600060015b6002548111610c93576000818152600160205260409020600801546001600160a01b0387811691161415610c81576000818152600160205260409020548351849084908110610c6857634e487b7160e01b600052603260045260246000fd5b602090810291909101015281610c7d816117fc565b9250505b80610c8b816117fc565b915050610c09565b5090949350505050565b6060600060025467ffffffffffffffff811115610cca57634e487b7160e01b600052604160045260246000fd5b604051908082528060200260200182016040528015610cf3578160200160208202803683370190505b50905060015b6002548111610d4a578082610d0f6001836117aa565b81518110610d2d57634e487b7160e01b600052603260045260246000fd5b602090810291909101015280610d42816117fc565b915050610cf9565b50905090565b60008054604051632782085160e01b81526001600160a01b0390911690632782085190610d819033906004016113c1565b60206040518083038186803b158015610d9957600080fd5b505afa158015610dad573d6000803e3d6000fd5b505050506040513d601f19601f82011682018060405250810190610dd1919061121b565b6004811115610df057634e487b7160e01b600052602160045260246000fd5b14610e0d5760405162461bcd60e51b815260040161045290611538565b600083815260016020526040902054610e385760405162461bcd60e51b815260040161045290611450565b6000838152600160205260409020600801546001600160a01b03163314610e715760405162461bcd60e51b8152600401610452906115e0565b600083815260016020526040902060080154600160a01b900460ff1615610eaa5760405162461bcd60e51b815260040161045290611634565b60408051808201909152600981526877617374655479706560b81b6020918201528251908301207fda62af0599126ecc85f63c85e25c4a3aa39f78504e1ccd24ffa5f0d6fbc592491415610f235760008381526001602081815260409092208351610f1d939190920191908401906110d3565b50611093565b60408051808201909152600681526537b934b3b4b760d11b6020918201528251908301207fe2c8f58f0df9cec2871ea15158e280ec612c88c13436bc131ebac9868db8cafe1415610f935760008381526001602090815260409091208251610f1d926002909201918401906110d3565b60408051808201909152600b81526a3232b9b1b934b83a34b7b760a91b6020918201528251908301207f1596dc38e2ac5a6ddc5e019af4adcc1e017a04f510d57e69d6879d5d2996bb8e14156110085760008381526001602090815260409091208251610f1d926004909201918401906110d3565b6040805180820190915260098152680d2dac2ceca90c2e6d60bb1b6020918201528251908301207f1cdbc8d71b26435d54a4b2eb9a81206ac8ca1b29f1e8877d57070e96bbfdbf11141561107b5760008381526001602090815260409091208251610f1d926005909201918401906110d3565b60405162461bcd60e51b815260040161045290611419565b7f8c4d5fbb3ba0d7b64f607c6d030696516184f74cf74fa96028b0720feaecbf4c8383836040516110c693929190611674565b60405180910390a1505050565b8280546110df906117c1565b90600052602060002090601f0160209004810192826111015760008555611147565b82601f1061111a57805160ff1916838001178555611147565b82800160010185558215611147579182015b8281111561114757825182559160200191906001019061112c565b50611153929150611157565b5090565b5b808211156111535760008155600101611158565b600082601f83011261117c578081fd5b813567ffffffffffffffff808211156111975761119761182d565b604051601f8301601f1916810160200182811182821017156111bb576111bb61182d565b6040528281528483016020018610156111d2578384fd5b82602086016020830137918201602001929092529392505050565b6000602082840312156111fe578081fd5b81356001600160a01b0381168114611214578182fd5b9392505050565b60006020828403121561122c578081fd5b815160058110611214578182fd5b60008060008060008060c08789031215611252578182fd5b863567ffffffffffffffff80821115611269578384fd5b6112758a838b0161116c565b9750602089013591508082111561128a578384fd5b6112968a838b0161116c565b96506040890135955060608901359150808211156112b2578384fd5b6112be8a838b0161116c565b945060808901359150808211156112d3578384fd5b506112e089828a0161116c565b92505060a087013590509295509295509295565b600060208284031215611305578081fd5b5035919050565b600080600060608486031215611320578283fd5b83359250602084013567ffffffffffffffff8082111561133e578384fd5b61134a8783880161116c565b9350604086013591508082111561135f578283fd5b5061136c8682870161116c565b9150509250925092565b60008151808452815b8181101561139b5760208185018101518683018201520161137f565b818111156113ac5782602083870101525b50601f01601f19169290920160200192915050565b6001600160a01b0391909116815260200190565b6020808252825182820181905260009190848201906040850190845b8181101561140d578351835292840192918401916001016113f1565b50909695505050505050565b6020808252601e908201527f496e76616c6964206669656c64206e616d6520666f72207570646174652e0000604082015260600190565b6020808252601a908201527f5761737465206974656d20646f6573206e6f742065786973742e000000000000604082015260600190565b60208082526023908201527f5175616e74697479206d7573742062652067726561746572207468616e207a6560408201526239379760e91b606082015260800190565b6020808252601d908201527f5761737465206974656d20616c72656164792070726f6365737365642e000000604082015260600190565b6020808252601f908201527f446561646c696e65206d75737420626520696e20746865206675747572652e00604082015260600190565b60208082526034908201527f556e617574686f72697a65643a204f6e6c792070726f6475636572732063616e604082015273103832b93337b936903a3434b99030b1ba34b7b760611b606082015260800190565b60208082526034908201527f556e617574686f72697a65643a204f6e6c792072656379636c6572732063616e604082015273103832b93337b936903a3434b99030b1ba34b7b760611b606082015260800190565b60208082526034908201527f4f6e6c7920746865206f726967696e616c2070726f64756365722063616e2075604082015273383230ba32903bb0b9ba32903232ba30b4b6399760611b606082015260800190565b6020808252601e908201527f43616e6e6f74207570646174652070726f6365737365642077617374652e0000604082015260600190565b90815260200190565b60008482526060602083015261168d6060830185611376565b828103604084015261169f8185611376565b9695505050505050565b600088825260e060208301526116c260e0830189611376565b82810360408401526116d48189611376565b905086606084015282810360808401526116ee8187611376565b905082810360a08401526117028186611376565b9150508260c083015298975050505050505050565b60006101408c83528060208401526117318184018d611376565b90508281036040840152611745818c611376565b9050896060840152828103608084015261175f818a611376565b905082810360a08401526117738189611376565b60c0840197909752505060e08101939093526001600160a01b03919091166101008301521515610120909101529695505050505050565b6000828210156117bc576117bc611817565b500390565b6002810460018216806117d557607f821691505b602082108114156117f657634e487b7160e01b600052602260045260246000fd5b50919050565b600060001982141561181057611810611817565b5060010190565b634e487b7160e01b600052601160045260246000fd5b634e487b7160e01b600052604160045260246000fdfea2646970667358221220411ea3367bc7a1df0da8cf4b5d8b0ab4e910ec201df9748d772e9f1c3fd3c1bf64736f6c63430008000033",
  "immutableReferences": {},
  "source": "// SPDX-License-Identifier: MIT\r\npragma solidity ^0.8.0;\r\n\r\nimport \"./UserManagement.sol\";\r\n\r\ncontract eWasteTracking {\r\n    UserManagement public userManagement;\r\n\r\n    struct eWasteItem {\r\n        uint id;\r\n        string wasteType;\r\n        string origin;\r\n        uint quantity;\r\n        string description;\r\n        string imageHash;  // IPFS hash for image\r\n        uint256 deadline;  // Deadline set by producer\r\n        uint256 loggedAt;\r\n        address producer;\r\n        bool isProcessed;\r\n    }\r\n\r\n    mapping(uint => eWasteItem) public wasteRecords;\r\n    uint public wasteCounter;\r\n    \r\n    // Events\r\n    event WasteLogged(\r\n        uint id, \r\n        string wasteType, \r\n        string origin, \r\n        uint quantity, \r\n        string description,\r\n        string imageHash,\r\n        uint256 deadline, \r\n        address indexed producer\r\n    );\r\n    event WasteProcessed(uint id, address indexed recycler);\r\n    event WasteUpdated(uint id, string field, string newValue);\r\n\r\n    constructor(address _userManagementAddress) {\r\n        userManagement = UserManagement(_userManagementAddress);\r\n        wasteCounter = 0;\r\n    }\r\n\r\n    modifier onlyProducer() {\r\n        require(\r\n            userManagement.getUserRole(msg.sender) == UserManagement.Role.Producer,\r\n            \"Unauthorized: Only producers can perform this action\"\r\n        );\r\n        _;\r\n    }\r\n\r\n    modifier onlyRecycler() {\r\n        require(\r\n            userManagement.getUserRole(msg.sender) == UserManagement.Role.Recycler,\r\n            \"Unauthorized: Only recyclers can perform this action\"\r\n        );\r\n        _;\r\n    }\r\n\r\n    function logWaste(\r\n        string memory _wasteType,\r\n        string memory _origin,\r\n        uint _quantity,\r\n        string memory _description,\r\n        string memory _imageHash,\r\n        uint256 _deadline\r\n    ) external onlyProducer {\r\n        require(_quantity > 0, \"Quantity must be greater than zero.\");\r\n        require(_deadline > block.timestamp, \"Deadline must be in the future.\");\r\n\r\n        wasteCounter++;\r\n        wasteRecords[wasteCounter] = eWasteItem({\r\n            id: wasteCounter,\r\n            wasteType: _wasteType,\r\n            origin: _origin,\r\n            quantity: _quantity,\r\n            description: _description,\r\n            imageHash: _imageHash,\r\n            deadline: _deadline,\r\n            loggedAt: block.timestamp,\r\n            producer: msg.sender,\r\n            isProcessed: false\r\n        });\r\n        \r\n        emit WasteLogged(\r\n            wasteCounter, \r\n            _wasteType, \r\n            _origin, \r\n            _quantity, \r\n            _description,\r\n            _imageHash,\r\n            _deadline, \r\n            msg.sender\r\n        );\r\n    }\r\n\r\n    function markAsProcessed(uint _id) external onlyRecycler {\r\n        require(wasteRecords[_id].id != 0, \"Waste item does not exist.\");\r\n        require(!wasteRecords[_id].isProcessed, \"Waste item already processed.\");\r\n        \r\n        wasteRecords[_id].isProcessed = true;\r\n        emit WasteProcessed(_id, msg.sender);\r\n    }\r\n\r\n    function updateWasteDetails(\r\n        uint _id, \r\n        string memory _field, \r\n        string memory _value\r\n    ) external onlyProducer {\r\n        require(wasteRecords[_id].id != 0, \"Waste item does not exist.\");\r\n        require(wasteRecords[_id].producer == msg.sender, \"Only the original producer can update waste details.\");\r\n        require(!wasteRecords[_id].isProcessed, \"Cannot update processed waste.\");\r\n        \r\n        if (keccak256(bytes(_field)) == keccak256(bytes(\"wasteType\"))) {\r\n            wasteRecords[_id].wasteType = _value;\r\n        } else if (keccak256(bytes(_field)) == keccak256(bytes(\"origin\"))) {\r\n            wasteRecords[_id].origin = _value;\r\n        } else if (keccak256(bytes(_field)) == keccak256(bytes(\"description\"))) {\r\n            wasteRecords[_id].description = _value;\r\n        } else if (keccak256(bytes(_field)) == keccak256(bytes(\"imageHash\"))) {\r\n            wasteRecords[_id].imageHash = _value;\r\n        } else {\r\n            revert(\"Invalid field name for update.\");\r\n        }\r\n        \r\n        emit WasteUpdated(_id, _field, _value);\r\n    }\r\n\r\n    function getWasteItem(uint _id) external view returns (\r\n        uint id,\r\n        string memory wasteType,\r\n        string memory origin,\r\n        uint quantity,\r\n        string memory description,\r\n        string memory imageHash,\r\n        uint256 deadline,\r\n        uint256 loggedAt,\r\n        address producer,\r\n        bool isProcessed\r\n    ) {\r\n        eWasteItem memory item = wasteRecords[_id];\r\n        require(item.id != 0, \"Waste item does not exist.\");\r\n        \r\n        return (\r\n            item.id,\r\n            item.wasteType,\r\n            item.origin,\r\n            item.quantity,\r\n            item.description,\r\n            item.imageHash,\r\n            item.deadline,\r\n            item.loggedAt,\r\n            item.producer,\r\n            item.isProcessed\r\n        );\r\n    }\r\n    \r\n    function getWasteItemsByProducer(address _producer) external view returns (uint[] memory) {\r\n        uint count = 0;\r\n        \r\n        // Count waste items for this producer\r\n        for (uint i = 1; i <= wasteCounter; i++) {\r\n            if (wasteRecords[i].producer == _producer) {\r\n                count++;\r\n            }\r\n        }\r\n        \r\n        // Create array of IDs\r\n        uint[] memory result = new uint[](count);\r\n        uint index = 0;\r\n        \r\n        // Fill array with IDs\r\n        for (uint i = 1; i <= wasteCounter; i++) {\r\n            if (wasteRecords[i].producer == _producer) {\r\n                result[index] = wasteRecords[i].id;\r\n                index++;\r\n            }\r\n        }\r\n        \r\n        return result;\r\n    }\r\n    \r\n    function getAllWasteItems() external view returns (uint[] memory) {\r\n        uint[] memory allItems = new uint[](wasteCounter);\r\n        \r\n        for (uint i = 1; i <= wasteCounter; i++) {\r\n            allItems[i-1] = i;\r\n        }\r\n        \r\n        return allItems;\r\n    }\r\n}",
  "sourcePath": "C:\\Users\\harod\\OneDrive\\Documents\\Ewaste11\\ewaste_v2\\contracts\\eWasteTracking.sol",
  "compiler": {
    "name": "solc",
    "version": "0.8.0+commit.c7dfd78e.Emscripten.clang"
  },
  "schemaVersion": "3.4.16",
  "updatedAt": "2025-05-13T14:03:44.174Z",
  "networkType": "ethereum",
  "devdoc": {
    "kind": "dev",
    "methods": {},
    "version": 1
  },
  "userdoc": {
    "kind": "user",
    "methods": {},
    "version": 1
  }
}