{
  "contractName": "LogisticsTracking",
  "abi": [
    {
      "inputs": [
        {
          "internalType": "address",
          "name": "_userManagementAddress",
          "type": "address"
        }
      ],
      "stateMutability": "nonpayable",
      "type": "constructor"
    },
    {
      "anonymous": false,
      "inputs": [
        {
          "indexed": false,
          "internalType": "uint256",
          "name": "id",
          "type": "uint256"
        },
        {
          "indexed": false,
          "internalType": "uint256",
          "name": "wasteId",
          "type": "uint256"
        },
        {
          "indexed": false,
          "internalType": "uint256",
          "name": "cancelledAt",
          "type": "uint256"
        }
      ],
      "name": "ShipmentCancelled",
      "type": "event"
    },
    {
      "anonymous": false,
      "inputs": [
        {
          "indexed": false,
          "internalType": "uint256",
          "name": "id",
          "type": "uint256"
        },
        {
          "indexed": false,
          "internalType": "uint256",
          "name": "wasteId",
          "type": "uint256"
        },
        {
          "indexed": true,
          "internalType": "address",
          "name": "transporter",
          "type": "address"
        },
        {
          "indexed": true,
          "internalType": "address",
          "name": "producer",
          "type": "address"
        },
        {
          "indexed": true,
          "internalType": "address",
          "name": "receiver",
          "type": "address"
        }
      ],
      "name": "ShipmentCreated",
      "type": "event"
    },
    {
      "anonymous": false,
      "inputs": [
        {
          "indexed": false,
          "internalType": "uint256",
          "name": "id",
          "type": "uint256"
        },
        {
          "indexed": false,
          "internalType": "uint256",
          "name": "wasteId",
          "type": "uint256"
        },
        {
          "indexed": false,
          "internalType": "uint256",
          "name": "deliveredAt",
          "type": "uint256"
        }
      ],
      "name": "ShipmentDelivered",
      "type": "event"
    },
    {
      "anonymous": false,
      "inputs": [
        {
          "indexed": false,
          "internalType": "uint256",
          "name": "id",
          "type": "uint256"
        },
        {
          "indexed": false,
          "internalType": "uint256",
          "name": "wasteId",
          "type": "uint256"
        },
        {
          "indexed": false,
          "internalType": "enum LogisticsTracking.ShipmentStatus",
          "name": "status",
          "type": "uint8"
        },
        {
          "indexed": false,
          "internalType": "string",
          "name": "location",
          "type": "string"
        },
        {
          "indexed": false,
          "internalType": "uint256",
          "name": "updatedAt",
          "type": "uint256"
        }
      ],
      "name": "ShipmentUpdated",
      "type": "event"
    },
    {
      "inputs": [],
      "name": "shipmentCounter",
      "outputs": [
        {
          "internalType": "uint256",
          "name": "",
          "type": "uint256"
        }
      ],
      "stateMutability": "view",
      "type": "function",
      "constant": true
    },
    {
      "inputs": [
        {
          "internalType": "uint256",
          "name": "",
          "type": "uint256"
        }
      ],
      "name": "shipments",
      "outputs": [
        {
          "internalType": "uint256",
          "name": "id",
          "type": "uint256"
        },
        {
          "internalType": "uint256",
          "name": "wasteId",
          "type": "uint256"
        },
        {
          "internalType": "enum LogisticsTracking.ShipmentStatus",
          "name": "status",
          "type": "uint8"
        },
        {
          "internalType": "address",
          "name": "transporter",
          "type": "address"
        },
        {
          "internalType": "string",
          "name": "location",
          "type": "string"
        },
        {
          "internalType": "string",
          "name": "trackingCode",
          "type": "string"
        },
        {
          "internalType": "uint256",
          "name": "createdAt",
          "type": "uint256"
        },
        {
          "internalType": "uint256",
          "name": "updatedAt",
          "type": "uint256"
        },
        {
          "internalType": "address",
          "name": "producer",
          "type": "address"
        },
        {
          "internalType": "address",
          "name": "receiver",
          "type": "address"
        }
      ],
      "stateMutability": "view",
      "type": "function",
      "constant": true
    },
    {
      "inputs": [],
      "name": "userManagement",
      "outputs": [
        {
          "internalType": "contract UserManagement",
          "name": "",
          "type": "address"
        }
      ],
      "stateMutability": "view",
      "type": "function",
      "constant": true
    },
    {
      "inputs": [
        {
          "internalType": "uint256",
          "name": "_wasteId",
          "type": "uint256"
        },
        {
          "internalType": "address",
          "name": "_producer",
          "type": "address"
        },
        {
          "internalType": "address",
          "name": "_receiver",
          "type": "address"
        },
        {
          "internalType": "string",
          "name": "_trackingCode",
          "type": "string"
        }
      ],
      "name": "createShipment",
      "outputs": [],
      "stateMutability": "nonpayable",
      "type": "function"
    },
    {
      "inputs": [
        {
          "internalType": "uint256",
          "name": "_shipmentId",
          "type": "uint256"
        },
        {
          "internalType": "enum LogisticsTracking.ShipmentStatus",
          "name": "_status",
          "type": "uint8"
        },
        {
          "internalType": "string",
          "name": "_location",
          "type": "string"
        }
      ],
      "name": "updateShipment",
      "outputs": [],
      "stateMutability": "nonpayable",
      "type": "function"
    },
    {
      "inputs": [
        {
          "internalType": "uint256",
          "name": "_shipmentId",
          "type": "uint256"
        }
      ],
      "name": "getShipmentDetails",
      "outputs": [
        {
          "internalType": "uint256",
          "name": "id",
          "type": "uint256"
        },
        {
          "internalType": "uint256",
          "name": "wasteId",
          "type": "uint256"
        },
        {
          "internalType": "enum LogisticsTracking.ShipmentStatus",
          "name": "status",
          "type": "uint8"
        },
        {
          "internalType": "address",
          "name": "transporter",
          "type": "address"
        },
        {
          "internalType": "string",
          "name": "location",
          "type": "string"
        },
        {
          "internalType": "string",
          "name": "trackingCode",
          "type": "string"
        },
        {
          "internalType": "uint256",
          "name": "createdAt",
          "type": "uint256"
        },
        {
          "internalType": "uint256",
          "name": "updatedAt",
          "type": "uint256"
        },
        {
          "internalType": "address",
          "name": "producer",
          "type": "address"
        },
        {
          "internalType": "address",
          "name": "receiver",
          "type": "address"
        }
      ],
      "stateMutability": "view",
      "type": "function",
      "constant": true
    },
    {
      "inputs": [
        {
          "internalType": "address",
          "name": "_transporter",
          "type": "address"
        }
      ],
      "name": "getTransporterShipments",
      "outputs": [
        {
          "internalType": "uint256[]",
          "name": "",
          "type": "uint256[]"
        }
      ],
      "stateMutability": "view",
      "type": "function",
      "constant": true
    },
    {
      "inputs": [
        {
          "internalType": "enum LogisticsTracking.ShipmentStatus",
          "name": "_status",
          "type": "uint8"
        }
      ],
      "name": "getShipmentsByStatus",
      "outputs": [
        {
          "internalType": "uint256[]",
          "name": "",
          "type": "uint256[]"
        }
      ],
      "stateMutability": "view",
      "type": "function",
      "constant": true
    },
    {
      "inputs": [
        {
          "internalType": "address",
          "name": "_party",
          "type": "address"
        }
      ],
      "name": "getShipmentsByParty",
      "outputs": [
        {
          "internalType": "uint256[]",
          "name": "",
          "type": "uint256[]"
        }
      ],
      "stateMutability": "view",
      "type": "function",
      "constant": true
    }
  ],
  "bytecode": "0x608060405234801561001057600080fd5b50604051611a14380380611a1483398101604081905261002f91610057565b600080546001600160a01b0319166001600160a01b0392909216919091178155600255610085565b600060208284031215610068578081fd5b81516001600160a01b038116811461007e578182fd5b9392505050565b611980806100946000396000f3fe608060405234801561001057600080fd5b50600436106100935760003560e01c8063693d70aa11610066578063693d70aa146101125780636a767f5014610125578063c39560411461013a578063c8cc7dc61461014f578063ea7a08111461016257610093565b80632ac08a93146100985780632afb73bb146100ca5780634647f9da146100ea5780635b4848c0146100ff575b600080fd5b6100ab6100a636600461145f565b610175565b6040516100c19a999897969594939291906117ed565b60405180910390f35b6100dd6100d8366004611443565b6102f1565b6040516100c191906115b5565b6100f2610491565b6040516100c191906117d6565b6100dd61010d366004611406565b610497565b6100ab61012036600461145f565b6105cb565b61012d610ad4565b6040516100c191906115a1565b61014d6101483660046114dd565b610ae3565b005b6100dd61015d366004611406565b610e6b565b61014d610170366004611477565b61103b565b60016020819052600091825260409091208054918101546002820154600383018054929360ff8316936101009093046001600160a01b0316929091906101ba906118c2565b80601f01602080910402602001604051908101604052809291908181526020018280546101e6906118c2565b80156102335780601f1061020857610100808354040283529160200191610233565b820191906000526020600020905b81548152906001019060200180831161021657829003601f168201915b505050505090806004018054610248906118c2565b80601f0160208091040260200160405190810160405280929190818152602001828054610274906118c2565b80156102c15780601f10610296576101008083540402835291602001916102c1565b820191906000526020600020905b8154815290600101906020018083116102a457829003601f168201915b505050600584015460068501546007860154600890960154949591949093506001600160a01b039182169250168a565b6060600060015b600254811161037b5783600481111561032157634e487b7160e01b600052602160045260246000fd5b60008281526001602052604090206002015460ff16600481111561035557634e487b7160e01b600052602160045260246000fd5b14156103695781610365816118fd565b9250505b80610373816118fd565b9150506102f8565b5060008167ffffffffffffffff8111156103a557634e487b7160e01b600052604160045260246000fd5b6040519080825280602002602001820160405280156103ce578160200160208202803683370190505b509050600060015b6002548111610485578560048111156103ff57634e487b7160e01b600052602160045260246000fd5b60008281526001602052604090206002015460ff16600481111561043357634e487b7160e01b600052602160045260246000fd5b1415610473578083838151811061045a57634e487b7160e01b600052603260045260246000fd5b60209081029190910101528161046f816118fd565b9250505b8061047d816118fd565b9150506103d6565b5090925050505b919050565b60025481565b6060600060015b60025481116104f1576000818152600160205260409020600201546001600160a01b038581166101009092041614156104df57816104db816118fd565b9250505b806104e9816118fd565b91505061049e565b5060008167ffffffffffffffff81111561051b57634e487b7160e01b600052604160045260246000fd5b604051908082528060200260200182016040528015610544578160200160208202803683370190505b509050600060015b6002548111610485576000818152600160205260409020600201546001600160a01b038781166101009092041614156105b957808383815181106105a057634e487b7160e01b600052603260045260246000fd5b6020908102919091010152816105b5816118fd565b9250505b806105c3816118fd565b91505061054c565b6000806000806060806000806000808a6000600160008381526020019081526020016000206040518061014001604052908160008201548152602001600182015481526020016002820160009054906101000a900460ff16600481111561064257634e487b7160e01b600052602160045260246000fd5b600481111561066157634e487b7160e01b600052602160045260246000fd5b8152600282015461010090046001600160a01b03166020820152600382018054604090920191610690906118c2565b80601f01602080910402602001604051908101604052809291908181526020018280546106bc906118c2565b80156107095780601f106106de57610100808354040283529160200191610709565b820191906000526020600020905b8154815290600101906020018083116106ec57829003601f168201915b50505050508152602001600482018054610722906118c2565b80601f016020809104026020016040519081016040528092919081815260200182805461074e906118c2565b801561079b5780601f106107705761010080835404028352916020019161079b565b820191906000526020600020905b81548152906001019060200180831161077e57829003601f168201915b5050509183525050600582015460208201526006820154604082015260078201546001600160a01b039081166060808401919091526008909301548116608090920191909152908201519192501633148061080c57508061010001516001600160a01b0316336001600160a01b0316145b8061082d57508061012001516001600160a01b0316336001600160a01b0316145b6108525760405162461bcd60e51b8152600401610849906116f7565b60405180910390fd5b60008d815260016020818152604080842081516101408101835281548152938101549284019290925260028201549083019060ff1660048111156108a657634e487b7160e01b600052602160045260246000fd5b60048111156108c557634e487b7160e01b600052602160045260246000fd5b8152600282015461010090046001600160a01b031660208201526003820180546040909201916108f4906118c2565b80601f0160208091040260200160405190810160405280929190818152602001828054610920906118c2565b801561096d5780601f106109425761010080835404028352916020019161096d565b820191906000526020600020905b81548152906001019060200180831161095057829003601f168201915b50505050508152602001600482018054610986906118c2565b80601f01602080910402602001604051908101604052809291908181526020018280546109b2906118c2565b80156109ff5780601f106109d4576101008083540402835291602001916109ff565b820191906000526020600020905b8154815290600101906020018083116109e257829003601f168201915b5050505050815260200160058201548152602001600682015481526020016007820160009054906101000a90046001600160a01b03166001600160a01b03166001600160a01b031681526020016008820160009054906101000a90046001600160a01b03166001600160a01b03166001600160a01b0316815250509050806000015181602001518260400151836060015184608001518560a001518660c001518760e001518861010001518961012001519c509c509c509c509c509c509c509c509c509c505050509193959799509193959799565b6000546001600160a01b031681565b600054604051632782085160e01b81526002916001600160a01b031690632782085190610b149033906004016115a1565b60206040518083038186803b158015610b2c57600080fd5b505afa158015610b40573d6000803e3d6000fd5b505050506040513d601f19601f82011682018060405250810190610b649190611427565b6004811115610b8357634e487b7160e01b600052602160045260246000fd5b14610ba05760405162461bcd60e51b81526004016108499061169a565b600083118015610bb257506002548311155b610bce5760405162461bcd60e51b815260040161084990611767565b60008381526001602052604090206002015461010090046001600160a01b03163314610c0c5760405162461bcd60e51b8152600401610849906115f9565b60008381526001602052604090206003836004811115610c3c57634e487b7160e01b600052602160045260246000fd5b1415610c8c5760028082015460ff166004811115610c6a57634e487b7160e01b600052602160045260246000fd5b14610c875760405162461bcd60e51b81526004016108499061164f565b610cfb565b6004836004811115610cae57634e487b7160e01b600052602160045260246000fd5b1415610cfb576003600282015460ff166004811115610cdd57634e487b7160e01b600052602160045260246000fd5b1415610cfb5760405162461bcd60e51b815260040161084990611794565b60028101805484919060ff19166001836004811115610d2a57634e487b7160e01b600052602160045260246000fd5b02179055508151610d4490600383019060208501906112d5565b504281600601819055507f1a2af127002d60ad16c8097a05c8a0296ef4f49d45215cd4fd03b8d06d8d63a5848260010154858542604051610d8995949392919061186e565b60405180910390a16003836004811115610db357634e487b7160e01b600052602160045260246000fd5b1415610dfd577f1868f8790162b38347dd32c18f05255866c34a5e7208c84a9f70a84f49e8bd5684826001015442604051610df0939291906118ac565b60405180910390a1610e65565b6004836004811115610e1f57634e487b7160e01b600052602160045260246000fd5b1415610e65577fb053fae3e86eba2d7ff2feeff137c5988aaa933008579a08b0f5aaf2f3312c7f84826001015442604051610e5c939291906118ac565b60405180910390a15b50505050565b6060600060015b6002548111610f13576000818152600160205260409020600701546001600160a01b0385811691161480610ec257506000818152600160205260409020600801546001600160a01b038581169116145b80610eee57506000818152600160205260409020600201546001600160a01b0385811661010090920416145b15610f015781610efd816118fd565b9250505b80610f0b816118fd565b915050610e72565b5060008167ffffffffffffffff811115610f3d57634e487b7160e01b600052604160045260246000fd5b604051908082528060200260200182016040528015610f66578160200160208202803683370190505b509050600060015b6002548111610485576000818152600160205260409020600701546001600160a01b0387811691161480610fbe57506000818152600160205260409020600801546001600160a01b038781169116145b80610fea57506000818152600160205260409020600201546001600160a01b0387811661010090920416145b15611029578083838151811061101057634e487b7160e01b600052603260045260246000fd5b602090810291909101015281611025816118fd565b9250505b80611033816118fd565b915050610f6e565b600054604051632782085160e01b81526002916001600160a01b03169063278208519061106c9033906004016115a1565b60206040518083038186803b15801561108457600080fd5b505afa158015611098573d6000803e3d6000fd5b505050506040513d601f19601f820116820180604052508101906110bc9190611427565b60048111156110db57634e487b7160e01b600052602160045260246000fd5b146110f85760405162461bcd60e51b81526004016108499061169a565b60028054906000611108836118fd565b90915550506040805161014081018252600280548083526020808401898152600085870181815233606088015287518089018952600681526527b934b3b4b760d11b81860152608088015260a087018990524260c0880181905260e08801526001600160a01b038b81166101008901528a16610120880152938152600192839052959095208451815594518582015590519184018054939493909160ff1991909116908360048111156111cb57634e487b7160e01b600052602160045260246000fd5b021790555060608201516002820180546001600160a01b0390921661010002610100600160a81b0319909216919091179055608082015180516112189160038401916020909101906112d5565b5060a082015180516112349160048401916020909101906112d5565b5060c0820151600582015560e082015160068201556101008201516007820180546001600160a01b03199081166001600160a01b03938416179091556101209093015160089092018054909316918116919091179091556002546040518483169286169133917f0c2fb5885d163c908f21c2bef19638c8b387b40baccc170e5a95d70c168e39d5916112c7918a906117df565b60405180910390a450505050565b8280546112e1906118c2565b90600052602060002090601f0160209004810192826113035760008555611349565b82601f1061131c57805160ff1916838001178555611349565b82800160010185558215611349579182015b8281111561134957825182559160200191906001019061132e565b50611355929150611359565b5090565b5b80821115611355576000815560010161135a565b80356001600160a01b038116811461048c57600080fd5b600082601f830112611395578081fd5b813567ffffffffffffffff808211156113b0576113b0611924565b604051601f8301601f1916810160200182811182821017156113d4576113d4611924565b6040528281528483016020018610156113eb578384fd5b82602086016020830137918201602001929092529392505050565b600060208284031215611417578081fd5b6114208261136e565b9392505050565b600060208284031215611438578081fd5b81516114208161193a565b600060208284031215611454578081fd5b81356114208161193a565b600060208284031215611470578081fd5b5035919050565b6000806000806080858703121561148c578283fd5b8435935061149c6020860161136e565b92506114aa6040860161136e565b9150606085013567ffffffffffffffff8111156114c5578182fd5b6114d187828801611385565b91505092959194509250565b6000806000606084860312156114f1578283fd5b8335925060208401356115038161193a565b9150604084013567ffffffffffffffff81111561151e578182fd5b61152a86828701611385565b9150509250925092565b6005811061155257634e487b7160e01b600052602160045260246000fd5b9052565b60008151808452815b8181101561157b5760208185018101518683018201520161155f565b8181111561158c5782602083870101525b50601f01601f19169290920160200192915050565b6001600160a01b0391909116815260200190565b6020808252825182820181905260009190848201906040850190845b818110156115ed578351835292840192918401916001016115d1565b50909695505050505050565b60208082526036908201527f4f6e6c79207468652061737369676e6564207472616e73706f727465722063616040820152751b881d5c19185d19481d1a1a5cc81cda1a5c1b595b9d60521b606082015260800190565b6020808252602b908201527f536869706d656e74206d75737420626520696e207472616e736974206265666f60408201526a72652064656c697665727960a81b606082015260800190565b6020808252603f908201527f556e617574686f72697a65643a204f6e6c79206c6f676973746963732070726f60408201527f7669646572732063616e20706572666f726d207468697320616374696f6e2e00606082015260800190565b6020808252604a908201527f556e617574686f72697a65643a204f6e6c79207061727469657320696e766f6c60408201527f76656420696e207468697320736869706d656e742063616e207669657720697460608201526939903232ba30b4b6399760b11b608082015260a00190565b602080825260139082015272125b9d985b1a59081cda1a5c1b595b9d081251606a1b604082015260600190565b60208082526022908201527f43616e6e6f742063616e63656c20612064656c69766572656420736869706d656040820152611b9d60f21b606082015260800190565b90815260200190565b918252602082015260400190565b60006101408c83528b6020840152611808604084018c611534565b6001600160a01b038a811660608501526080840182905261182b8285018b611556565b915083820360a085015261183f828a611556565b60c085019890985260e08401969096525050918316610100830152909116610120909101529695505050505050565b60008682528560208301526118866040830186611534565b60a0606083015261189a60a0830185611556565b90508260808301529695505050505050565b9283526020830191909152604082015260600190565b6002810460018216806118d657607f821691505b602082108114156118f757634e487b7160e01b600052602260045260246000fd5b50919050565b600060001982141561191d57634e487b7160e01b81526011600452602481fd5b5060010190565b634e487b7160e01b600052604160045260246000fd5b6005811061194757600080fd5b5056fea26469706673582212208798d284ae509563a5eb1497c4883466e2b99ff88a3a5e10e3cb93334589444c64736f6c63430008000033",
  "immutableReferences": {},
  "source": "// SPDX-License-Identifier: MIT\r\npragma solidity ^0.8.0;\r\n\r\nimport \"./UserManagement.sol\";\r\n\r\ncontract LogisticsTracking {\r\n    UserManagement public userManagement;\r\n\r\n    enum ShipmentStatus { Pending, PickedUp, InTransit, Delivered, Cancelled }\r\n\r\n    struct Shipment {\r\n        uint id;\r\n        uint wasteId;\r\n        ShipmentStatus status;\r\n        address transporter;\r\n        string location;\r\n        string trackingCode;\r\n        uint256 createdAt;\r\n        uint256 updatedAt;\r\n        address producer;\r\n        address receiver;\r\n    }\r\n\r\n    mapping(uint => Shipment) public shipments;\r\n    uint public shipmentCounter;\r\n    \r\n    // Events\r\n    event ShipmentCreated(\r\n        uint id, \r\n        uint wasteId, \r\n        address indexed transporter, \r\n        address indexed producer, \r\n        address indexed receiver\r\n    );\r\n    event ShipmentUpdated(\r\n        uint id, \r\n        uint wasteId, \r\n        ShipmentStatus status, \r\n        string location, \r\n        uint256 updatedAt\r\n    );\r\n    event ShipmentDelivered(uint id, uint wasteId, uint256 deliveredAt);\r\n    event ShipmentCancelled(uint id, uint wasteId, uint256 cancelledAt);\r\n\r\n    constructor(address _userManagementAddress) {\r\n        userManagement = UserManagement(_userManagementAddress);\r\n        shipmentCounter = 0;\r\n    }\r\n\r\n    modifier onlyLogistics() {\r\n        require(\r\n            userManagement.getUserRole(msg.sender) == UserManagement.Role.Logistics,\r\n            \"Unauthorized: Only logistics providers can perform this action.\"\r\n        );\r\n        _;\r\n    }\r\n\r\n    modifier onlyInvolved(uint _shipmentId) {\r\n        Shipment memory shipment = shipments[_shipmentId];\r\n        require(\r\n            msg.sender == shipment.transporter || \r\n            msg.sender == shipment.producer || \r\n            msg.sender == shipment.receiver,\r\n            \"Unauthorized: Only parties involved in this shipment can view its details.\"\r\n        );\r\n        _;\r\n    }\r\n\r\n    function createShipment(\r\n        uint _wasteId, \r\n        address _producer, \r\n        address _receiver, \r\n        string memory _trackingCode\r\n    ) external onlyLogistics {\r\n        shipmentCounter++;\r\n        \r\n        shipments[shipmentCounter] = Shipment({\r\n            id: shipmentCounter,\r\n            wasteId: _wasteId,\r\n            status: ShipmentStatus.Pending,\r\n            transporter: msg.sender,\r\n            location: \"Origin\",\r\n            trackingCode: _trackingCode,\r\n            createdAt: block.timestamp,\r\n            updatedAt: block.timestamp,\r\n            producer: _producer,\r\n            receiver: _receiver\r\n        });\r\n        \r\n        emit ShipmentCreated(\r\n            shipmentCounter, \r\n            _wasteId, \r\n            msg.sender, \r\n            _producer, \r\n            _receiver\r\n        );\r\n    }\r\n\r\n    function updateShipment(\r\n        uint _shipmentId, \r\n        ShipmentStatus _status, \r\n        string memory _location\r\n    ) external onlyLogistics {\r\n        require(_shipmentId > 0 && _shipmentId <= shipmentCounter, \"Invalid shipment ID\");\r\n        require(shipments[_shipmentId].transporter == msg.sender, \"Only the assigned transporter can update this shipment\");\r\n        \r\n        Shipment storage shipment = shipments[_shipmentId];\r\n        \r\n        // Validate status transition\r\n        if (_status == ShipmentStatus.Delivered) {\r\n            require(shipment.status == ShipmentStatus.InTransit, \"Shipment must be in transit before delivery\");\r\n        } else if (_status == ShipmentStatus.Cancelled) {\r\n            require(shipment.status != ShipmentStatus.Delivered, \"Cannot cancel a delivered shipment\");\r\n        }\r\n        \r\n        shipment.status = _status;\r\n        shipment.location = _location;\r\n        shipment.updatedAt = block.timestamp;\r\n        \r\n        emit ShipmentUpdated(\r\n            _shipmentId, \r\n            shipment.wasteId, \r\n            _status, \r\n            _location, \r\n            block.timestamp\r\n        );\r\n        \r\n        if (_status == ShipmentStatus.Delivered) {\r\n            emit ShipmentDelivered(_shipmentId, shipment.wasteId, block.timestamp);\r\n        } else if (_status == ShipmentStatus.Cancelled) {\r\n            emit ShipmentCancelled(_shipmentId, shipment.wasteId, block.timestamp);\r\n        }\r\n    }\r\n\r\n    function getShipmentDetails(uint _shipmentId) external view onlyInvolved(_shipmentId) returns (\r\n        uint id,\r\n        uint wasteId,\r\n        ShipmentStatus status,\r\n        address transporter,\r\n        string memory location,\r\n        string memory trackingCode,\r\n        uint256 createdAt,\r\n        uint256 updatedAt,\r\n        address producer,\r\n        address receiver\r\n    ) {\r\n        Shipment memory shipment = shipments[_shipmentId];\r\n        \r\n        return (\r\n            shipment.id,\r\n            shipment.wasteId,\r\n            shipment.status,\r\n            shipment.transporter,\r\n            shipment.location,\r\n            shipment.trackingCode,\r\n            shipment.createdAt,\r\n            shipment.updatedAt,\r\n            shipment.producer,\r\n            shipment.receiver\r\n        );\r\n    }\r\n\r\n    function getTransporterShipments(address _transporter) external view returns (uint[] memory) {\r\n        uint count = 0;\r\n        \r\n        // Count shipments for this transporter\r\n        for (uint i = 1; i <= shipmentCounter; i++) {\r\n            if (shipments[i].transporter == _transporter) {\r\n                count++;\r\n            }\r\n        }\r\n        \r\n        // Create array of IDs\r\n        uint[] memory result = new uint[](count);\r\n        uint index = 0;\r\n        \r\n        // Fill array with IDs\r\n        for (uint i = 1; i <= shipmentCounter; i++) {\r\n            if (shipments[i].transporter == _transporter) {\r\n                result[index] = i;\r\n                index++;\r\n            }\r\n        }\r\n        \r\n        return result;\r\n    }\r\n\r\n    function getShipmentsByStatus(ShipmentStatus _status) external view returns (uint[] memory) {\r\n        uint count = 0;\r\n        \r\n        // Count shipments with this status\r\n        for (uint i = 1; i <= shipmentCounter; i++) {\r\n            if (shipments[i].status == _status) {\r\n                count++;\r\n            }\r\n        }\r\n        \r\n        // Create array of IDs\r\n        uint[] memory result = new uint[](count);\r\n        uint index = 0;\r\n        \r\n        // Fill array with IDs\r\n        for (uint i = 1; i <= shipmentCounter; i++) {\r\n            if (shipments[i].status == _status) {\r\n                result[index] = i;\r\n                index++;\r\n            }\r\n        }\r\n        \r\n        return result;\r\n    }\r\n    \r\n    function getShipmentsByParty(address _party) external view returns (uint[] memory) {\r\n        uint count = 0;\r\n        \r\n        // Count shipments where party is involved\r\n        for (uint i = 1; i <= shipmentCounter; i++) {\r\n            if (shipments[i].producer == _party || \r\n                shipments[i].receiver == _party || \r\n                shipments[i].transporter == _party) {\r\n                count++;\r\n            }\r\n        }\r\n        \r\n        // Create array of IDs\r\n        uint[] memory result = new uint[](count);\r\n        uint index = 0;\r\n        \r\n        // Fill array with IDs\r\n        for (uint i = 1; i <= shipmentCounter; i++) {\r\n            if (shipments[i].producer == _party || \r\n                shipments[i].receiver == _party || \r\n                shipments[i].transporter == _party) {\r\n                result[index] = i;\r\n                index++;\r\n            }\r\n        }\r\n        \r\n        return result;\r\n    }\r\n}",
  "sourcePath": "D:\\project\\ewaste v3\\contracts\\LogisticsTracking.sol",
  "compiler": {
    "name": "solc",
    "version": "0.8.0+commit.c7dfd78e.Emscripten.clang"
  },
  "schemaVersion": "3.4.16",
  "updatedAt": "2025-05-11T23:13:54.956Z",
  "networkType": "ethereum",
  "devdoc": {
    "kind": "dev",
    "methods": {},
    "version": 1
  },
  "userdoc": {
    "kind": "user",
    "methods": {},
    "version": 1
  }
}