{
  "contractName": "RecyclingManagement",
  "abi": [
    {
      "inputs": [
        {
          "internalType": "address",
          "name": "_userManagementAddress",
          "type": "address"
        },
        {
          "internalType": "address",
          "name": "_eWasteTrackerAddress",
          "type": "address"
        }
      ],
      "stateMutability": "nonpayable",
      "type": "constructor"
    },
    {
      "anonymous": false,
      "inputs": [
        {
          "indexed": false,
          "internalType": "uint256",
          "name": "wasteId",
          "type": "uint256"
        },
        {
          "indexed": false,
          "internalType": "string",
          "name": "material",
          "type": "string"
        },
        {
          "indexed": false,
          "internalType": "uint256",
          "name": "quantity",
          "type": "uint256"
        }
      ],
      "name": "MaterialRecovered",
      "type": "event"
    },
    {
      "anonymous": false,
      "inputs": [
        {
          "indexed": false,
          "internalType": "uint256",
          "name": "wasteId",
          "type": "uint256"
        },
        {
          "indexed": false,
          "internalType": "address",
          "name": "recycler",
          "type": "address"
        },
        {
          "indexed": false,
          "internalType": "string",
          "name": "reason",
          "type": "string"
        }
      ],
      "name": "NonCompliance",
      "type": "event"
    },
    {
      "anonymous": false,
      "inputs": [
        {
          "indexed": false,
          "internalType": "uint256",
          "name": "wasteId",
          "type": "uint256"
        },
        {
          "indexed": false,
          "internalType": "address",
          "name": "recycler",
          "type": "address"
        },
        {
          "indexed": false,
          "internalType": "uint256",
          "name": "completedAt",
          "type": "uint256"
        }
      ],
      "name": "RecyclingCompleted",
      "type": "event"
    },
    {
      "anonymous": false,
      "inputs": [
        {
          "indexed": false,
          "internalType": "uint256",
          "name": "wasteId",
          "type": "uint256"
        },
        {
          "indexed": false,
          "internalType": "address",
          "name": "recycler",
          "type": "address"
        },
        {
          "indexed": false,
          "internalType": "string",
          "name": "method",
          "type": "string"
        },
        {
          "indexed": false,
          "internalType": "uint256",
          "name": "startedAt",
          "type": "uint256"
        }
      ],
      "name": "RecyclingStarted",
      "type": "event"
    },
    {
      "anonymous": false,
      "inputs": [
        {
          "indexed": false,
          "internalType": "uint256",
          "name": "wasteId",
          "type": "uint256"
        },
        {
          "indexed": false,
          "internalType": "address",
          "name": "recycler",
          "type": "address"
        },
        {
          "indexed": false,
          "internalType": "uint256",
          "name": "progressPercentage",
          "type": "uint256"
        }
      ],
      "name": "RecyclingUpdated",
      "type": "event"
    },
    {
      "inputs": [],
      "name": "eWasteTracker",
      "outputs": [
        {
          "internalType": "contract eWasteTracking",
          "name": "",
          "type": "address"
        }
      ],
      "stateMutability": "view",
      "type": "function",
      "constant": true
    },
    {
      "inputs": [
        {
          "internalType": "uint256",
          "name": "",
          "type": "uint256"
        }
      ],
      "name": "recycledWaste",
      "outputs": [
        {
          "internalType": "uint256",
          "name": "wasteId",
          "type": "uint256"
        },
        {
          "internalType": "string",
          "name": "method",
          "type": "string"
        },
        {
          "internalType": "address",
          "name": "recycler",
          "type": "address"
        },
        {
          "internalType": "enum RecyclingManagement.RecyclingStatus",
          "name": "status",
          "type": "uint8"
        },
        {
          "internalType": "uint256",
          "name": "progressPercentage",
          "type": "uint256"
        },
        {
          "internalType": "string",
          "name": "evidenceHash",
          "type": "string"
        },
        {
          "internalType": "uint256",
          "name": "startedAt",
          "type": "uint256"
        },
        {
          "internalType": "uint256",
          "name": "completedAt",
          "type": "uint256"
        }
      ],
      "stateMutability": "view",
      "type": "function",
      "constant": true
    },
    {
      "inputs": [
        {
          "internalType": "address",
          "name": "",
          "type": "address"
        },
        {
          "internalType": "uint256",
          "name": "",
          "type": "uint256"
        }
      ],
      "name": "recyclerItems",
      "outputs": [
        {
          "internalType": "uint256",
          "name": "",
          "type": "uint256"
        }
      ],
      "stateMutability": "view",
      "type": "function",
      "constant": true
    },
    {
      "inputs": [],
      "name": "userManagement",
      "outputs": [
        {
          "internalType": "contract UserManagement",
          "name": "",
          "type": "address"
        }
      ],
      "stateMutability": "view",
      "type": "function",
      "constant": true
    },
    {
      "inputs": [
        {
          "internalType": "uint256",
          "name": "_wasteId",
          "type": "uint256"
        },
        {
          "internalType": "string",
          "name": "_method",
          "type": "string"
        }
      ],
      "name": "startRecycling",
      "outputs": [],
      "stateMutability": "nonpayable",
      "type": "function"
    },
    {
      "inputs": [
        {
          "internalType": "uint256",
          "name": "_wasteId",
          "type": "uint256"
        },
        {
          "internalType": "uint256",
          "name": "_progressPercentage",
          "type": "uint256"
        },
        {
          "internalType": "string",
          "name": "_evidenceHash",
          "type": "string"
        }
      ],
      "name": "updateRecyclingProgress",
      "outputs": [],
      "stateMutability": "nonpayable",
      "type": "function"
    },
    {
      "inputs": [
        {
          "internalType": "uint256",
          "name": "_wasteId",
          "type": "uint256"
        },
        {
          "internalType": "string",
          "name": "_material",
          "type": "string"
        },
        {
          "internalType": "uint256",
          "name": "_quantity",
          "type": "uint256"
        }
      ],
      "name": "addRecoveredMaterial",
      "outputs": [],
      "stateMutability": "nonpayable",
      "type": "function"
    },
    {
      "inputs": [
        {
          "internalType": "uint256",
          "name": "_wasteId",
          "type": "uint256"
        }
      ],
      "name": "getRecycledItem",
      "outputs": [
        {
          "internalType": "uint256",
          "name": "wasteId",
          "type": "uint256"
        },
        {
          "internalType": "string",
          "name": "method",
          "type": "string"
        },
        {
          "internalType": "address",
          "name": "recycler",
          "type": "address"
        },
        {
          "internalType": "enum RecyclingManagement.RecyclingStatus",
          "name": "status",
          "type": "uint8"
        },
        {
          "internalType": "uint256",
          "name": "progressPercentage",
          "type": "uint256"
        },
        {
          "internalType": "string[]",
          "name": "materialRecovered",
          "type": "string[]"
        },
        {
          "internalType": "uint256[]",
          "name": "materialQuantities",
          "type": "uint256[]"
        },
        {
          "internalType": "string",
          "name": "evidenceHash",
          "type": "string"
        },
        {
          "internalType": "uint256",
          "name": "startedAt",
          "type": "uint256"
        },
        {
          "internalType": "uint256",
          "name": "completedAt",
          "type": "uint256"
        }
      ],
      "stateMutability": "view",
      "type": "function",
      "constant": true
    },
    {
      "inputs": [
        {
          "internalType": "address",
          "name": "_recycler",
          "type": "address"
        }
      ],
      "name": "getRecyclerItems",
      "outputs": [
        {
          "internalType": "uint256[]",
          "name": "",
          "type": "uint256[]"
        }
      ],
      "stateMutability": "view",
      "type": "function",
      "constant": true
    },
    {
      "inputs": [
        {
          "internalType": "enum RecyclingManagement.RecyclingStatus",
          "name": "_status",
          "type": "uint8"
        }
      ],
      "name": "getItemsByStatus",
      "outputs": [
        {
          "internalType": "uint256[]",
          "name": "",
          "type": "uint256[]"
        }
      ],
      "stateMutability": "view",
      "type": "function",
      "constant": true
    }
  ],
  "bytecode": "0x60806040523480156200001157600080fd5b5060405162001f4138038062001f41833981016040819052620000349162000083565b600080546001600160a01b039384166001600160a01b03199182161790915560018054929093169116179055620000ba565b80516001600160a01b03811681146200007e57600080fd5b919050565b6000806040838503121562000096578182fd5b620000a18362000066565b9150620000b16020840162000066565b90509250929050565b611e7780620000ca6000396000f3fe608060405234801561001057600080fd5b506004361061009e5760003560e01c80636a767f50116100665780636a767f50146101375780639b5e847c1461014c578063ccbd5e8014610154578063dcad7da914610174578063f8a8457e146101875761009e565b80630a64d21c146100a357806331b413f6146100d55780634763413c146100ea57806352594a0f1461011157806359c2e34a14610124575b600080fd5b6100b66100b1366004611637565b6101a7565b6040516100cc9a99989796959493929190611bd2565b60405180910390f35b6100e86100e336600461164f565b610546565b005b6100fd6100f8366004611637565b610a09565b6040516100cc989796959493929190611ca5565b6100e861011f366004611786565b610b6c565b6100e86101323660046117d4565b610d5e565b61013f61106d565b6040516100cc91906118aa565b61013f61107c565b6101676101623660046115f9565b61108b565b6040516100cc91906118be565b6101676101823660046115ab565b6112cf565b61019a6101953660046115ce565b61133b565b6040516100cc9190611b19565b60006060600080600060608060606000806000600260008d815260200190815260200160002060405180610140016040529081600082015481526020016001820180546101f390611db4565b80601f016020809104026020016040519081016040528092919081815260200182805461021f90611db4565b801561026c5780601f106102415761010080835404028352916020019161026c565b820191906000526020600020905b81548152906001019060200180831161024f57829003601f168201915b50505091835250506002828101546001600160a01b0381166020840152604090920191600160a01b900460ff16908111156102b757634e487b7160e01b600052602160045260246000fd5b60028111156102d657634e487b7160e01b600052602160045260246000fd5b81526020016003820154815260200160048201805480602002602001604051908101604052809291908181526020016000905b828210156103b557838290600052602060002001805461032890611db4565b80601f016020809104026020016040519081016040528092919081815260200182805461035490611db4565b80156103a15780601f10610376576101008083540402835291602001916103a1565b820191906000526020600020905b81548152906001019060200180831161038457829003601f168201915b505050505081526020019060010190610309565b5050505081526020016005820180548060200260200160405190810160405280929190818152602001828054801561040c57602002820191906000526020600020905b8154815260200190600101908083116103f8575b5050505050815260200160068201805461042590611db4565b80601f016020809104026020016040519081016040528092919081815260200182805461045190611db4565b801561049e5780601f106104735761010080835404028352916020019161049e565b820191906000526020600020905b81548152906001019060200180831161048157829003601f168201915b5050509183525050600782015460208201526008909101546040918201528101519091506001600160a01b03166104f05760405162461bcd60e51b81526004016104e7906119f1565b60405180910390fd5b806000015181602001518260400151836060015184608001518560a001518660c001518760e001518861010001518961012001519a509a509a509a509a509a509a509a509a509a50509193959799509193959799565b600054604051632782085160e01b81526001916001600160a01b0316906327820851906105779033906004016118aa565b60206040518083038186803b15801561058f57600080fd5b505afa1580156105a3573d6000803e3d6000fd5b505050506040513d601f19601f820116820180604052508101906105c79190611618565b60048111156105e657634e487b7160e01b600052602160045260246000fd5b146106035760405162461bcd60e51b81526004016104e79061199c565b6000828152600260208190526040909120015482906001600160a01b031615806106475750600081815260026020819052604090912001546001600160a01b031633145b6106635760405162461bcd60e51b81526004016104e790611a6e565b6001546040516303678e5b60e11b8152600091829182916001600160a01b0316906306cf1cb690610698908990600401611b19565b60006040518083038186803b1580156106b057600080fd5b505afa1580156106c4573d6000803e3d6000fd5b505050506040513d6000823e601f3d908101601f191682016040526106ec9190810190611694565b99505050975050505050509250826000141561071a5760405162461bcd60e51b81526004016104e790611917565b80156107385760405162461bcd60e51b81526004016104e790611ad8565b600086815260026020819052604090912001546001600160a01b031661092f57604080516101408101825287815260208082018890523382840152600160608301526000608083018190528351818152918201909352909160a0830191906107b0565b606081526020019060019003908161079b5790505b50815260200160006040519080825280602002602001820160405280156107e1578160200160208202803683370190505b508152604080516020818101835260008083528185019290925242838501526060909301819052898152600283522082518155828201518051919261082e9260018501929091019061136c565b506040820151600282810180546001600160a01b0319166001600160a01b03909316929092178083556060850151929160ff60a01b1990911690600160a01b90849081111561088d57634e487b7160e01b600052602160045260246000fd5b02179055506080820151600382015560a082015180516108b79160048401916020909101906113f0565b5060c082015180516108d3916005840191602090910190611449565b5060e082015180516108ef91600684019160209091019061136c565b5061010082015160078201556101209091015160089091015533600090815260036020908152604082208054600181018255908352912001869055610982565b600086815260026020908152604090912086516109549260019092019188019061136c565b506000868152600260208190526040909120908101805460ff60a01b1916600160a01b179055426007909101555b7ffe2eae380bbb7fd01c1fc550ce847cfa289f1f2e16ce67d43044e3353af3a2e2863387426040516109b79493929190611b22565b60405180910390a181421115610a01577f13715eb6cb10ad4ea7ee7db01b4d580dc3863989789f347d47bbf765fd7a791586336040516109f8929190611b5d565b60405180910390a15b505050505050565b60026020526000908152604090208054600182018054919291610a2b90611db4565b80601f0160208091040260200160405190810160405280929190818152602001828054610a5790611db4565b8015610aa45780601f10610a7957610100808354040283529160200191610aa4565b820191906000526020600020905b815481529060010190602001808311610a8757829003601f168201915b505050506002830154600384015460068501805494956001600160a01b03841695600160a01b90940460ff1694509192610add90611db4565b80601f0160208091040260200160405190810160405280929190818152602001828054610b0990611db4565b8015610b565780601f10610b2b57610100808354040283529160200191610b56565b820191906000526020600020905b815481529060010190602001808311610b3957829003601f168201915b5050505050908060070154908060080154905088565b600054604051632782085160e01b81526001916001600160a01b031690632782085190610b9d9033906004016118aa565b60206040518083038186803b158015610bb557600080fd5b505afa158015610bc9573d6000803e3d6000fd5b505050506040513d601f19601f82011682018060405250810190610bed9190611618565b6004811115610c0c57634e487b7160e01b600052602160045260246000fd5b14610c295760405162461bcd60e51b81526004016104e79061199c565b6000838152600260208190526040909120015483906001600160a01b03161580610c6d5750600081815260026020819052604090912001546001600160a01b031633145b610c895760405162461bcd60e51b81526004016104e790611a6e565b600084815260026020819052604090912001546001600160a01b0316610cc15760405162461bcd60e51b81526004016104e79061194e565b600084815260026020908152604082206004018054600181018255908352918190208551610cf693919091019186019061136c565b50600084815260026020908152604080832060050180546001810182559084529190922001839055517f380cb7c4ce7e172456556700aaae6b05a985bc1f503a6ae45fc07d6866e8362290610d5090869086908690611d0d565b60405180910390a150505050565b600054604051632782085160e01b81526001916001600160a01b031690632782085190610d8f9033906004016118aa565b60206040518083038186803b158015610da757600080fd5b505afa158015610dbb573d6000803e3d6000fd5b505050506040513d601f19601f82011682018060405250810190610ddf9190611618565b6004811115610dfe57634e487b7160e01b600052602160045260246000fd5b14610e1b5760405162461bcd60e51b81526004016104e79061199c565b6000838152600260208190526040909120015483906001600160a01b03161580610e5f5750600081815260026020819052604090912001546001600160a01b031633145b610e7b5760405162461bcd60e51b81526004016104e790611a6e565b600084815260026020819052604090912001546001600160a01b0316610eb35760405162461bcd60e51b81526004016104e79061194e565b60026000858152600260208190526040909120810154600160a01b900460ff1690811115610ef157634e487b7160e01b600052602160045260246000fd5b1415610f0f5760405162461bcd60e51b81526004016104e790611a37565b6064831115610f305760405162461bcd60e51b81526004016104e7906118d1565b6000848152600260209081526040909120600381018590558351610f5c9260069092019185019061136c565b50826064141561103457600084815260026020819052604091829020908101805460ff60a01b1916600160a11b17905542600890910155600154905163247ab51f60e01b81526001600160a01b039091169063247ab51f90610fc2908790600401611b19565b600060405180830381600087803b158015610fdc57600080fd5b505af1158015610ff0573d6000803e3d6000fd5b505050507fb4bff29a96c783410319973308a724be52188a0ee052781ae5bddcee2de1910184334260405161102793929190611bb3565b60405180910390a1611067565b7ff99e076b904d6a5af39737d1222c67174f9eeed5a08d50805697e7bd197bd87b843385604051610d5093929190611bb3565b50505050565b6000546001600160a01b031681565b6001546001600160a01b031681565b60606000805b33600090815260036020526040902054811015611167573360009081526003602052604081208054839081106110d757634e487b7160e01b600052603260045260246000fd5b9060005260206000200154905084600281111561110457634e487b7160e01b600052602160045260246000fd5b6000828152600260208190526040909120810154600160a01b900460ff169081111561114057634e487b7160e01b600052602160045260246000fd5b1415611154578261115081611def565b9350505b508061115f81611def565b915050611091565b5060008167ffffffffffffffff81111561119157634e487b7160e01b600052604160045260246000fd5b6040519080825280602002602001820160405280156111ba578160200160208202803683370190505b5090506000805b336000908152600360205260409020548110156112c35733600090815260036020526040812080548390811061120757634e487b7160e01b600052603260045260246000fd5b9060005260206000200154905086600281111561123457634e487b7160e01b600052602160045260246000fd5b6000828152600260208190526040909120810154600160a01b900460ff169081111561127057634e487b7160e01b600052602160045260246000fd5b14156112b0578084848151811061129757634e487b7160e01b600052603260045260246000fd5b6020908102919091010152826112ac81611def565b9350505b50806112bb81611def565b9150506111c1565b5090925050505b919050565b6001600160a01b03811660009081526003602090815260409182902080548351818402810184019094528084526060939283018282801561132f57602002820191906000526020600020905b81548152602001906001019080831161131b575b50505050509050919050565b6003602052816000526040600020818154811061135757600080fd5b90600052602060002001600091509150505481565b82805461137890611db4565b90600052602060002090601f01602090048101928261139a57600085556113e0565b82601f106113b357805160ff19168380011785556113e0565b828001600101855582156113e0579182015b828111156113e05782518255916020019190600101906113c5565b506113ec929150611483565b5090565b82805482825590600052602060002090810192821561143d579160200282015b8281111561143d578251805161142d91849160209091019061136c565b5091602001919060010190611410565b506113ec929150611498565b8280548282559060005260206000209081019282156113e057916020028201828111156113e05782518255916020019190600101906113c5565b5b808211156113ec5760008155600101611484565b808211156113ec5760006114ac82826114b5565b50600101611498565b5080546114c190611db4565b6000825580601f106114d357506114f1565b601f0160209004906000526020600020908101906114f19190611483565b50565b80516112ca81611e2c565b805180151581146112ca57600080fd5b600082601f83011261151f578081fd5b813561153261152d82611d60565b611d36565b818152846020838601011115611546578283fd5b816020850160208301379081016020019190915292915050565b600082601f830112611570578081fd5b815161157e61152d82611d60565b818152846020838601011115611592578283fd5b6115a3826020830160208701611d88565b949350505050565b6000602082840312156115bc578081fd5b81356115c781611e2c565b9392505050565b600080604083850312156115e0578081fd5b82356115eb81611e2c565b946020939093013593505050565b60006020828403121561160a578081fd5b8135600381106115c7578182fd5b600060208284031215611629578081fd5b8151600581106115c7578182fd5b600060208284031215611648578081fd5b5035919050565b60008060408385031215611661578182fd5b82359150602083013567ffffffffffffffff81111561167e578182fd5b61168a8582860161150f565b9150509250929050565b6000806000806000806000806000806101408b8d0312156116b3578586fd5b8a51995060208b015167ffffffffffffffff808211156116d1578788fd5b6116dd8e838f01611560565b9a5060408d01519150808211156116f2578788fd5b6116fe8e838f01611560565b995060608d0151985060808d015191508082111561171a578788fd5b6117268e838f01611560565b975060a08d015191508082111561173b578687fd5b506117488d828e01611560565b95505060c08b0151935060e08b015192506117666101008c016114f4565b91506117756101208c016114ff565b90509295989b9194979a5092959850565b60008060006060848603121561179a578283fd5b83359250602084013567ffffffffffffffff8111156117b7578283fd5b6117c38682870161150f565b925050604084013590509250925092565b6000806000606084860312156117e8578283fd5b8335925060208401359150604084013567ffffffffffffffff81111561180c578182fd5b6118188682870161150f565b9150509250925092565b6000815180845260208085019450808401835b8381101561185157815187529582019590820190600101611835565b509495945050505050565b6003811061187a57634e487b7160e01b600052602160045260246000fd5b9052565b60008151808452611896816020860160208601611d88565b601f01601f19169290920160200192915050565b6001600160a01b0391909116815260200190565b6000602082526115c76020830184611822565b60208082526026908201527f50726f67726573732070657263656e746167652063616e6e6f7420657863656560408201526532101898181760d11b606082015260800190565b6020808252601a908201527f5761737465206974656d20646f6573206e6f742065786973742e000000000000604082015260600190565b6020808252602e908201527f52656379636c696e67206e6f7420796574207374617274656420666f7220746860408201526d34b9903bb0b9ba329034ba32b69760911b606082015260800190565b60208082526035908201527f556e617574686f72697a65643a204f6e6c792072656379636c6572732063616e604082015274103832b93337b936903a3434b99030b1ba34b7b71760591b606082015260800190565b60208082526026908201527f4e6f2072656379636c696e67206461746120666f7220746869732077617374656040820152651034ba32b69760d11b606082015260800190565b6020808252601c908201527f52656379636c696e6720616c726561647920636f6d706c657465642e00000000604082015260600190565b60208082526044908201527f556e617574686f72697a65643a204f6e6c79207468652061737369676e65642060408201527f72656379636c65722063616e206d6f64696679207468697320776173746520696060820152633a32b69760e11b608082015260a00190565b60208082526021908201527f57617374652068617320616c7265616479206265656e2070726f6365737365646040820152601760f91b606082015260800190565b90815260200190565b8481526001600160a01b0384166020820152608060408201819052600090611b4c9083018561187e565b905082606083015295945050505050565b9182526001600160a01b031660208201526060604082018190526021908201527f52656379636c696e67207374617274656420616674657220646561646c696e656080820152601760f91b60a082015260c00190565b9283526001600160a01b03919091166020830152604082015260600190565b60006101408c835260208181850152611bed8285018e61187e565b6001600160a01b038d1660408601529150611c0b606085018c61185c565b608084018a905283820360a085015288518083528183019082810284018301838c01865b83811015611c5d57601f19878403018552611c4b83835161187e565b94860194925090850190600101611c2f565b505086810360c0880152611c71818c611822565b94505050505082810360e0840152611c89818761187e565b6101008401959095525050610120015298975050505050505050565b60006101008a8352806020840152611cbf8184018b61187e565b6001600160a01b038a1660408501529050611cdd606084018961185c565b86608084015282810360a0840152611cf5818761187e565b60c0840195909552505060e001529695505050505050565b600084825260606020830152611d26606083018561187e565b9050826040830152949350505050565b60405181810167ffffffffffffffff81118282101715611d5857611d58611e16565b604052919050565b600067ffffffffffffffff821115611d7a57611d7a611e16565b50601f01601f191660200190565b60005b83811015611da3578181015183820152602001611d8b565b838111156110675750506000910152565b600281046001821680611dc857607f821691505b60208210811415611de957634e487b7160e01b600052602260045260246000fd5b50919050565b6000600019821415611e0f57634e487b7160e01b81526011600452602481fd5b5060010190565b634e487b7160e01b600052604160045260246000fd5b6001600160a01b03811681146114f157600080fdfea2646970667358221220e1f1ae1db7ed22ea9b7f57cd2ccdb9a3ebb3f28fa6c92f43f8fd190ac375fe3b64736f6c63430008000033",
  "immutableReferences": {},
  "source": "// SPDX-License-Identifier: MIT\r\npragma solidity ^0.8.0;\r\n\r\nimport \"./UserManagement.sol\";\r\nimport \"./eWasteTracking.sol\";\r\n\r\ncontract RecyclingManagement {\r\n    UserManagement public userManagement;\r\n    eWasteTracking public eWasteTracker;\r\n\r\n    enum RecyclingStatus { NotStarted, InProgress, Completed }\r\n\r\n    struct RecycledItem {\r\n        uint wasteId;\r\n        string method;\r\n        address recycler;\r\n        RecyclingStatus status;\r\n        uint progressPercentage;\r\n        string[] materialRecovered;\r\n        uint[] materialQuantities;\r\n        string evidenceHash; // IPFS hash for evidence documents/images\r\n        uint256 startedAt;\r\n        uint256 completedAt;\r\n    }\r\n\r\n    mapping(uint => RecycledItem) public recycledWaste;\r\n    mapping(address => uint[]) public recyclerItems;\r\n    \r\n    // Events\r\n    event RecyclingStarted(uint wasteId, address recycler, string method, uint256 startedAt);\r\n    event RecyclingUpdated(uint wasteId, address recycler, uint progressPercentage);\r\n    event RecyclingCompleted(uint wasteId, address recycler, uint256 completedAt);\r\n    event MaterialRecovered(uint wasteId, string material, uint quantity);\r\n    event NonCompliance(uint wasteId, address recycler, string reason);\r\n\r\n    constructor(address _userManagementAddress, address _eWasteTrackerAddress) {\r\n        userManagement = UserManagement(_userManagementAddress);\r\n        eWasteTracker = eWasteTracking(_eWasteTrackerAddress);\r\n    }\r\n\r\n    modifier onlyRecycler() {\r\n        require(\r\n            userManagement.getUserRole(msg.sender) == UserManagement.Role.Recycler,\r\n            \"Unauthorized: Only recyclers can perform this action.\"\r\n        );\r\n        _;\r\n    }\r\n\r\n    modifier onlyAssignedRecycler(uint _wasteId) {\r\n        require(recycledWaste[_wasteId].recycler == address(0) || recycledWaste[_wasteId].recycler == msg.sender, \r\n            \"Unauthorized: Only the assigned recycler can modify this waste item.\");\r\n        _;\r\n    }\r\n\r\n    function startRecycling(uint _wasteId, string memory _method) external onlyRecycler onlyAssignedRecycler(_wasteId) {\r\n        (\r\n            uint id,\r\n            , // wasteType - unused\r\n            , // origin - unused\r\n            , // quantity - unused\r\n            , // description - unused\r\n            , // imageHash - unused\r\n            uint256 deadline,\r\n            , // loggedAt - unused\r\n            , // producer - unused\r\n            bool isProcessed\r\n        ) = eWasteTracker.getWasteItem(_wasteId);\r\n        \r\n        require(id != 0, \"Waste item does not exist.\");\r\n        require(!isProcessed, \"Waste has already been processed.\");\r\n        \r\n        // Check if entry exists, if not create it\r\n        if (recycledWaste[_wasteId].recycler == address(0)) {\r\n            recycledWaste[_wasteId] = RecycledItem({\r\n                wasteId: _wasteId,\r\n                method: _method,\r\n                recycler: msg.sender,\r\n                status: RecyclingStatus.InProgress,\r\n                progressPercentage: 0,\r\n                materialRecovered: new string[](0),\r\n                materialQuantities: new uint[](0),\r\n                evidenceHash: \"\",\r\n                startedAt: block.timestamp,\r\n                completedAt: 0\r\n            });\r\n            \r\n            // Add to recycler's list\r\n            recyclerItems[msg.sender].push(_wasteId);\r\n        } else {\r\n            // Update existing entry\r\n            recycledWaste[_wasteId].method = _method;\r\n            recycledWaste[_wasteId].status = RecyclingStatus.InProgress;\r\n            recycledWaste[_wasteId].startedAt = block.timestamp;\r\n        }\r\n        \r\n        emit RecyclingStarted(_wasteId, msg.sender, _method, block.timestamp);\r\n        \r\n        // Check if deadline has passed\r\n        if (block.timestamp > deadline) {\r\n            emit NonCompliance(_wasteId, msg.sender, \"Recycling started after deadline.\");\r\n        }\r\n    }\r\n\r\n    function updateRecyclingProgress(\r\n        uint _wasteId, \r\n        uint _progressPercentage, \r\n        string memory _evidenceHash\r\n    ) external onlyRecycler onlyAssignedRecycler(_wasteId) {\r\n        require(recycledWaste[_wasteId].recycler != address(0), \"Recycling not yet started for this waste item.\");\r\n        require(recycledWaste[_wasteId].status != RecyclingStatus.Completed, \"Recycling already completed.\");\r\n        require(_progressPercentage <= 100, \"Progress percentage cannot exceed 100.\");\r\n        \r\n        recycledWaste[_wasteId].progressPercentage = _progressPercentage;\r\n        recycledWaste[_wasteId].evidenceHash = _evidenceHash;\r\n        \r\n        if (_progressPercentage == 100) {\r\n            recycledWaste[_wasteId].status = RecyclingStatus.Completed;\r\n            recycledWaste[_wasteId].completedAt = block.timestamp;\r\n            \r\n            // Mark as processed in eWasteTracking contract\r\n            eWasteTracker.markAsProcessed(_wasteId);\r\n            \r\n            emit RecyclingCompleted(_wasteId, msg.sender, block.timestamp);\r\n        } else {\r\n            emit RecyclingUpdated(_wasteId, msg.sender, _progressPercentage);\r\n        }\r\n    }\r\n\r\n    function addRecoveredMaterial(\r\n        uint _wasteId, \r\n        string memory _material, \r\n        uint _quantity\r\n    ) external onlyRecycler onlyAssignedRecycler(_wasteId) {\r\n        require(recycledWaste[_wasteId].recycler != address(0), \"Recycling not yet started for this waste item.\");\r\n        \r\n        recycledWaste[_wasteId].materialRecovered.push(_material);\r\n        recycledWaste[_wasteId].materialQuantities.push(_quantity);\r\n        \r\n        emit MaterialRecovered(_wasteId, _material, _quantity);\r\n    }\r\n\r\n    function getRecycledItem(uint _wasteId) external view returns (\r\n        uint wasteId,\r\n        string memory method,\r\n        address recycler,\r\n        RecyclingStatus status,\r\n        uint progressPercentage,\r\n        string[] memory materialRecovered,\r\n        uint[] memory materialQuantities,\r\n        string memory evidenceHash,\r\n        uint256 startedAt,\r\n        uint256 completedAt\r\n    ) {\r\n        RecycledItem memory item = recycledWaste[_wasteId];\r\n        require(item.recycler != address(0), \"No recycling data for this waste item.\");\r\n        \r\n        return (\r\n            item.wasteId,\r\n            item.method,\r\n            item.recycler,\r\n            item.status,\r\n            item.progressPercentage,\r\n            item.materialRecovered,\r\n            item.materialQuantities,\r\n            item.evidenceHash,\r\n            item.startedAt,\r\n            item.completedAt\r\n        );\r\n    }\r\n\r\n    function getRecyclerItems(address _recycler) external view returns (uint[] memory) {\r\n        return recyclerItems[_recycler];\r\n    }\r\n    \r\n    function getItemsByStatus(RecyclingStatus _status) external view returns (uint[] memory) {\r\n        // Count items with the status\r\n        uint count = 0;\r\n        for (uint i = 0; i < recyclerItems[msg.sender].length; i++) {\r\n            uint wasteId = recyclerItems[msg.sender][i];\r\n            if (recycledWaste[wasteId].status == _status) {\r\n                count++;\r\n            }\r\n        }\r\n        \r\n        // Create result array\r\n        uint[] memory result = new uint[](count);\r\n        uint index = 0;\r\n        \r\n        // Fill result array\r\n        for (uint i = 0; i < recyclerItems[msg.sender].length; i++) {\r\n            uint wasteId = recyclerItems[msg.sender][i];\r\n            if (recycledWaste[wasteId].status == _status) {\r\n                result[index] = wasteId;\r\n                index++;\r\n            }\r\n        }\r\n        \r\n        return result;\r\n    }\r\n}",
  "sourcePath": "D:\\project\\ewaste v3\\contracts\\RecyclingManagement.sol",
  "compiler": {
    "name": "solc",
    "version": "0.8.0+commit.c7dfd78e.Emscripten.clang"
  },
  "schemaVersion": "3.4.16",
  "updatedAt": "2025-05-11T23:13:54.985Z",
  "networkType": "ethereum",
  "devdoc": {
    "kind": "dev",
    "methods": {},
    "version": 1
  },
  "userdoc": {
    "kind": "user",
    "methods": {},
    "version": 1
  }
}