{
  "contractName": "UserManagement",
  "abi": [
    {
      "inputs": [],
      "stateMutability": "nonpayable",
      "type": "constructor"
    },
    {
      "anonymous": false,
      "inputs": [
        {
          "indexed": true,
          "internalType": "address",
          "name": "oldAdmin",
          "type": "address"
        },
        {
          "indexed": true,
          "internalType": "address",
          "name": "newAdmin",
          "type": "address"
        }
      ],
      "name": "AdminChanged",
      "type": "event"
    },
    {
      "anonymous": false,
      "inputs": [
        {
          "indexed": true,
          "internalType": "address",
          "name": "user",
          "type": "address"
        },
        {
          "indexed": false,
          "internalType": "string",
          "name": "name",
          "type": "string"
        },
        {
          "indexed": false,
          "internalType": "enum UserManagement.Role",
          "name": "role",
          "type": "uint8"
        }
      ],
      "name": "UserLoggedIn",
      "type": "event"
    },
    {
      "anonymous": false,
      "inputs": [
        {
          "indexed": true,
          "internalType": "address",
          "name": "user",
          "type": "address"
        },
        {
          "indexed": false,
          "internalType": "string",
          "name": "name",
          "type": "string"
        },
        {
          "indexed": false,
          "internalType": "enum UserManagement.Role",
          "name": "role",
          "type": "uint8"
        },
        {
          "indexed": false,
          "internalType": "uint256",
          "name": "timestamp",
          "type": "uint256"
        }
      ],
      "name": "UserRegistered",
      "type": "event"
    },
    {
      "inputs": [],
      "name": "admin",
      "outputs": [
        {
          "internalType": "address",
          "name": "",
          "type": "address"
        }
      ],
      "stateMutability": "view",
      "type": "function",
      "constant": true
    },
    {
      "inputs": [
        {
          "internalType": "string",
          "name": "_name",
          "type": "string"
        },
        {
          "internalType": "enum UserManagement.Role",
          "name": "_role",
          "type": "uint8"
        },
        {
          "internalType": "string",
          "name": "_contactInfo",
          "type": "string"
        }
      ],
      "name": "registerUser",
      "outputs": [],
      "stateMutability": "nonpayable",
      "type": "function"
    },
    {
      "inputs": [
        {
          "internalType": "address",
          "name": "_userAddress",
          "type": "address"
        },
        {
          "internalType": "string",
          "name": "_name",
          "type": "string"
        },
        {
          "internalType": "enum UserManagement.Role",
          "name": "_role",
          "type": "uint8"
        },
        {
          "internalType": "string",
          "name": "_contactInfo",
          "type": "string"
        }
      ],
      "name": "registerUserWithAddress",
      "outputs": [],
      "stateMutability": "nonpayable",
      "type": "function"
    },
    {
      "inputs": [
        {
          "internalType": "string",
          "name": "_role",
          "type": "string"
        }
      ],
      "name": "loginUser",
      "outputs": [
        {
          "internalType": "string",
          "name": "",
          "type": "string"
        },
        {
          "internalType": "enum UserManagement.Role",
          "name": "",
          "type": "uint8"
        },
        {
          "internalType": "string",
          "name": "",
          "type": "string"
        }
      ],
      "stateMutability": "view",
      "type": "function",
      "constant": true
    },
    {
      "inputs": [
        {
          "internalType": "address",
          "name": "_user",
          "type": "address"
        }
      ],
      "name": "getUserCount",
      "outputs": [
        {
          "internalType": "uint256",
          "name": "",
          "type": "uint256"
        }
      ],
      "stateMutability": "view",
      "type": "function",
      "constant": true
    },
    {
      "inputs": [
        {
          "internalType": "address",
          "name": "_user",
          "type": "address"
        }
      ],
      "name": "getUserRole",
      "outputs": [
        {
          "internalType": "enum UserManagement.Role",
          "name": "",
          "type": "uint8"
        }
      ],
      "stateMutability": "view",
      "type": "function",
      "constant": true
    },
    {
      "inputs": [
        {
          "internalType": "address",
          "name": "_user",
          "type": "address"
        },
        {
          "internalType": "string",
          "name": "_role",
          "type": "string"
        }
      ],
      "name": "getUserByRole",
      "outputs": [
        {
          "internalType": "string",
          "name": "",
          "type": "string"
        },
        {
          "internalType": "enum UserManagement.Role",
          "name": "",
          "type": "uint8"
        },
        {
          "internalType": "string",
          "name": "",
          "type": "string"
        }
      ],
      "stateMutability": "view",
      "type": "function",
      "constant": true
    },
    {
      "inputs": [
        {
          "internalType": "address",
          "name": "_newAdmin",
          "type": "address"
        }
      ],
      "name": "changeAdmin",
      "outputs": [],
      "stateMutability": "nonpayable",
      "type": "function"
    }
  ],
  "bytecode": "0x608060405234801561001057600080fd5b50600180546001600160a01b03191633179055611581806100326000396000f3fe608060405234801561001057600080fd5b50600436106100885760003560e01c80638f2839701161005b5780638f2839701461010b578063950ab3d714610120578063a2b5e32014610133578063f851a4401461014657610088565b806303e8837c1461008d5780631c14ce5e146100b657806327820851146100d857806377ddd70f146100f8575b600080fd5b6100a061009b366004611091565b61015b565b6040516100ad91906114be565b60405180910390f35b6100c96100c4366004611180565b61017a565b6040516100ad9392919061135c565b6100eb6100e6366004611091565b610467565b6040516100ad9190611348565b6100c96101063660046110b2565b6104e8565b61011e610119366004611091565b6107ce565b005b61011e61012e3660046110fe565b610870565b61011e6101413660046111bb565b610b54565b61014e610de1565b6040516100ad9190611334565b6001600160a01b0381166000908152602081905260409020545b919050565b606060006060600061018b85610df0565b905060005b3360009081526020819052604090205481101561043e578160048111156101c757634e487b7160e01b600052602160045260246000fd5b3360009081526020819052604090208054839081106101f657634e487b7160e01b600052603260045260246000fd5b600091825260209091206004918202016001015460ff169081111561022b57634e487b7160e01b600052602160045260246000fd5b141561042c5733600090815260208190526040812080548390811061026057634e487b7160e01b600052603260045260246000fd5b90600052602060002090600402016040518060a0016040529081600082018054610289906114d3565b80601f01602080910402602001604051908101604052809291908181526020018280546102b5906114d3565b80156103025780601f106102d757610100808354040283529160200191610302565b820191906000526020600020905b8154815290600101906020018083116102e557829003601f168201915b5050509183525050600182015460209091019060ff16600481111561033757634e487b7160e01b600052602160045260246000fd5b600481111561035657634e487b7160e01b600052602160045260246000fd5b81526001820154610100900460ff16151560208201526002820154604082015260038201805460609092019161038b906114d3565b80601f01602080910402602001604051908101604052809291908181526020018280546103b7906114d3565b80156104045780601f106103d957610100808354040283529160200191610404565b820191906000526020600020905b8154815290600101906020018083116103e757829003601f168201915b5050505050815250509050806000015181602001518260800151955095509550505050610460565b806104368161150e565b915050610190565b5060405162461bcd60e51b815260040161045790611434565b60405180910390fd5b9193909250565b6001600160a01b0381166000908152602081905260408120548190156104df576001600160a01b03831660009081526020819052604090208054829081106104bf57634e487b7160e01b600052603260045260246000fd5b600091825260209091206001600490920201015460ff1691506101759050565b50600492915050565b60606000606060006104f985610df0565b905060005b6001600160a01b03871660009081526020819052604090205481101561043e5781600481111561053e57634e487b7160e01b600052602160045260246000fd5b6001600160a01b038816600090815260208190526040902080548390811061057657634e487b7160e01b600052603260045260246000fd5b600091825260209091206004918202016001015460ff16908111156105ab57634e487b7160e01b600052602160045260246000fd5b14156107b5576001600160a01b03871660009081526020819052604081208054839081106105e957634e487b7160e01b600052603260045260246000fd5b90600052602060002090600402016040518060a0016040529081600082018054610612906114d3565b80601f016020809104026020016040519081016040528092919081815260200182805461063e906114d3565b801561068b5780601f106106605761010080835404028352916020019161068b565b820191906000526020600020905b81548152906001019060200180831161066e57829003601f168201915b5050509183525050600182015460209091019060ff1660048111156106c057634e487b7160e01b600052602160045260246000fd5b60048111156106df57634e487b7160e01b600052602160045260246000fd5b81526001820154610100900460ff161515602082015260028201546040820152600382018054606090920191610714906114d3565b80601f0160208091040260200160405190810160405280929190818152602001828054610740906114d3565b801561078d5780601f106107625761010080835404028352916020019161078d565b820191906000526020600020905b81548152906001019060200180831161077057829003601f168201915b50505050508152505090508060000151816020015182608001519550955095505050506107c7565b806107bf8161150e565b9150506104fe565b9250925092565b6001546001600160a01b031633146107f85760405162461bcd60e51b8152600401610457906113f1565b6001600160a01b03811661081e5760405162461bcd60e51b8152600401610457906113c8565b600180546001600160a01b038381166001600160a01b0319831681179093556040519116919082907f7e644d79422f17c01e4894b5f4f588d331ebfa28653d42ae832dc59e38c9798f90600090a35050565b6001546001600160a01b0316331461089a5760405162461bcd60e51b8152600401610457906113f1565b60005b6001600160a01b0385166000908152602081905260409020548110156109f4578380519060200120600080876001600160a01b03166001600160a01b03168152602001908152602001600020828154811061090857634e487b7160e01b600052603260045260246000fd5b90600052602060002090600402016000016040516109269190611299565b60405180910390201480156109c5575082600481111561095657634e487b7160e01b600052602160045260246000fd5b6001600160a01b038616600090815260208190526040902080548390811061098e57634e487b7160e01b600052603260045260246000fd5b600091825260209091206004918202016001015460ff16908111156109c357634e487b7160e01b600052602160045260246000fd5b145b156109e25760405162461bcd60e51b81526004016104579061146b565b806109ec8161150e565b91505061089d565b506001600160a01b03841660009081526020818152604091829020825160a08101909352858352429290918101856004811115610a4157634e487b7160e01b600052602160045260246000fd5b8152600160208083018290526040830186905260609092018690528354908101845560009384529281902082518051939460040290910192610a869284920190610f51565b50602082015160018083018054909160ff1990911690836004811115610abc57634e487b7160e01b600052602160045260246000fd5b021790555060408201516001820180549115156101000261ff00199092169190911790556060820151600282015560808201518051610b05916003840191602090910190610f51565b505050846001600160a01b03167fe20b9b482e07c25b19f43796e724ce7c83ddf9ef501d7de45c19c2f444d45b31858584604051610b4593929190611398565b60405180910390a25050505050565b60005b33600090815260208190526040902054811015610c8b578351602080860191909120336000908152918290526040909120805483908110610ba857634e487b7160e01b600052603260045260246000fd5b9060005260206000209060040201600001604051610bc69190611299565b6040518091039020148015610c5c5750826004811115610bf657634e487b7160e01b600052602160045260246000fd5b336000908152602081905260409020805483908110610c2557634e487b7160e01b600052603260045260246000fd5b600091825260209091206004918202016001015460ff1690811115610c5a57634e487b7160e01b600052602160045260246000fd5b145b15610c795760405162461bcd60e51b81526004016104579061146b565b80610c838161150e565b915050610b57565b503360009081526020818152604091829020825160a08101909352858352429290918101856004811115610ccf57634e487b7160e01b600052602160045260246000fd5b8152600160208083018290526040830186905260609092018690528354908101845560009384529281902082518051939460040290910192610d149284920190610f51565b50602082015160018083018054909160ff1990911690836004811115610d4a57634e487b7160e01b600052602160045260246000fd5b021790555060408201516001820180549115156101000261ff00199092169190911790556060820151600282015560808201518051610d93916003840191602090910190610f51565b505050336001600160a01b03167fe20b9b482e07c25b19f43796e724ce7c83ddf9ef501d7de45c19c2f444d45b31858584604051610dd393929190611398565b60405180910390a250505050565b6001546001600160a01b031681565b604080518082019091526008815267283937b23ab1b2b960c11b6020918201528151908201206000907f95329f0f598032755f454b63034035528a2f09e00bb3dde055a4f8e3f7b116831415610e4857506000610175565b6040805180820190915260088152672932b1bcb1b632b960c11b6020918201528251908301207f7e5c20f42b2d995bdb24e462ff04bd7671fc61d2ea1cdcd2c6afd6082ccf18dd1415610e9d57506001610175565b6040805180820190915260098152684c6f6769737469637360b81b6020918201528251908301207fe9041614e9b342b5876206f8bc12f4659615159c0d53bce48bbdb364aea82d521415610ef357506002610175565b6040805180820190915260098152682932b3bab630ba37b960b91b6020918201528251908301207f60098439c256bcef427a4680fedcb96a8a1b70ca9eca0d69db5352a893ea01551415610f4957506003610175565b506004610175565b828054610f5d906114d3565b90600052602060002090601f016020900481019282610f7f5760008555610fc5565b82601f10610f9857805160ff1916838001178555610fc5565b82800160010185558215610fc5579182015b82811115610fc5578251825591602001919060010190610faa565b50610fd1929150610fd5565b5090565b5b80821115610fd15760008155600101610fd6565b80356001600160a01b038116811461017557600080fd5b80356005811061017557600080fd5b600082601f830112611020578081fd5b813567ffffffffffffffff8082111561103b5761103b611535565b604051601f8301601f19168101602001828111828210171561105f5761105f611535565b604052828152848301602001861015611076578384fd5b82602086016020830137918201602001929092529392505050565b6000602082840312156110a2578081fd5b6110ab82610fea565b9392505050565b600080604083850312156110c4578081fd5b6110cd83610fea565b9150602083013567ffffffffffffffff8111156110e8578182fd5b6110f485828601611010565b9150509250929050565b60008060008060808587031215611113578182fd5b61111c85610fea565b9350602085013567ffffffffffffffff80821115611138578384fd5b61114488838901611010565b945061115260408801611001565b93506060870135915080821115611167578283fd5b5061117487828801611010565b91505092959194509250565b600060208284031215611191578081fd5b813567ffffffffffffffff8111156111a7578182fd5b6111b384828501611010565b949350505050565b6000806000606084860312156111cf578283fd5b833567ffffffffffffffff808211156111e6578485fd5b6111f287838801611010565b945061120060208701611001565b93506040860135915080821115611215578283fd5b5061122286828701611010565b9150509250925092565b6005811061124a57634e487b7160e01b600052602160045260246000fd5b9052565b60008151808452815b8181101561127357602081850181015186830182015201611257565b818111156112845782602083870101525b50601f01601f19169290920160200192915050565b81546000908190600281046001808316806112b557607f831692505b60208084108214156112d557634e487b7160e01b87526022600452602487fd5b8180156112e957600181146112fa57611326565b60ff19861689528489019650611326565b6113038a6114c7565b885b8681101561131e5781548b820152908501908301611305565b505084890196505b509498975050505050505050565b6001600160a01b0391909116815260200190565b60208101611356828461122c565b92915050565b60006060825261136f606083018661124e565b61137c602084018661122c565b828103604084015261138e818561124e565b9695505050505050565b6000606082526113ab606083018661124e565b90506113ba602083018561122c565b826040830152949350505050565b6020808252600f908201526e496e76616c6964206164647265737360881b604082015260600190565b60208082526023908201527f4f6e6c792061646d696e2063616e20706572666f726d2074686973206163746960408201526237b71760e91b606082015260800190565b6020808252601d908201527f4e6f20757365722077697468207468697320726f6c6520666f756e642e000000604082015260600190565b60208082526033908201527f5573657220776974682074686973206e616d6520616e6420726f6c652069732060408201527230b63932b0b23c903932b3b4b9ba32b932b21760691b606082015260800190565b90815260200190565b60009081526020902090565b6002810460018216806114e757607f821691505b6020821081141561150857634e487b7160e01b600052602260045260246000fd5b50919050565b600060001982141561152e57634e487b7160e01b81526011600452602481fd5b5060010190565b634e487b7160e01b600052604160045260246000fdfea264697066735822122093e1af2f588d59720b9a1514b3453632bfef748b386c4c955f7c3bb3172e798364736f6c63430008000033",
  "immutableReferences": {},
  "source": "// SPDX-License-Identifier: MIT\r\npragma solidity ^0.8.0;\r\n\r\ncontract UserManagement {\r\n    enum Role { Producer, Recycler, Logistics, Regulator, None }\r\n\r\n    struct User {\r\n        string name;\r\n        Role role;\r\n        bool isRegistered;\r\n        uint256 registeredAt;\r\n        string contactInfo;\r\n    }\r\n\r\n    mapping(address => User[]) private users;\r\n    address public admin;\r\n    \r\n    // Events\r\n    event UserRegistered(address indexed user, string name, Role role, uint256 timestamp);\r\n    event UserLoggedIn(address indexed user, string name, Role role);\r\n    event AdminChanged(address indexed oldAdmin, address indexed newAdmin);\r\n\r\n    modifier onlyAdmin() {\r\n        require(msg.sender == admin, \"Only admin can perform this action.\");\r\n        _;\r\n    }\r\n\r\n    constructor() {\r\n        admin = msg.sender;\r\n    }\r\n\r\n    function registerUser(string memory _name, Role _role, string memory _contactInfo) external {\r\n        for (uint i = 0; i < users[msg.sender].length; i++) {\r\n            if (keccak256(bytes(users[msg.sender][i].name)) == keccak256(bytes(_name)) && users[msg.sender][i].role == _role) {\r\n                revert(\"User with this name and role is already registered.\");\r\n            }\r\n        }\r\n        uint256 timestamp = block.timestamp;\r\n        users[msg.sender].push(User(_name, _role, true, timestamp, _contactInfo));\r\n        emit UserRegistered(msg.sender, _name, _role, timestamp);\r\n    }\r\n    \r\n    // Admin function to register a user with a different address\r\n    function registerUserWithAddress(address _userAddress, string memory _name, Role _role, string memory _contactInfo) external onlyAdmin {\r\n        for (uint i = 0; i < users[_userAddress].length; i++) {\r\n            if (keccak256(bytes(users[_userAddress][i].name)) == keccak256(bytes(_name)) && users[_userAddress][i].role == _role) {\r\n                revert(\"User with this name and role is already registered.\");\r\n            }\r\n        }\r\n        uint256 timestamp = block.timestamp;\r\n        users[_userAddress].push(User(_name, _role, true, timestamp, _contactInfo));\r\n        emit UserRegistered(_userAddress, _name, _role, timestamp);\r\n    }\r\n\r\n    function loginUser(string memory _role) external view returns (string memory, Role, string memory) {\r\n        Role roleEnum = getRoleFromString(_role);\r\n        for (uint i = 0; i < users[msg.sender].length; i++) {\r\n            if (users[msg.sender][i].role == roleEnum) {\r\n                User memory user = users[msg.sender][i];\r\n                return (user.name, user.role, user.contactInfo);\r\n            }\r\n        }\r\n        revert(\"No user with this role found.\");\r\n    }\r\n\r\n    function getUserCount(address _user) external view returns (uint) {\r\n        return users[_user].length;\r\n    }\r\n\r\n    function getUserRole(address _user) public view returns (Role) {\r\n        for (uint i = 0; i < users[_user].length; i++) {\r\n            return users[_user][i].role; // Returns the first role found for the user\r\n        }\r\n        return Role.None; // Return None if no role is found\r\n    }\r\n\r\n    function getUserByRole(address _user, string memory _role) external view returns (string memory, Role, string memory) {\r\n        Role roleEnum = getRoleFromString(_role);\r\n        for (uint i = 0; i < users[_user].length; i++) {\r\n            if (users[_user][i].role == roleEnum) {\r\n                User memory user = users[_user][i];\r\n                return (user.name, user.role, user.contactInfo);\r\n            }\r\n        }\r\n        revert(\"No user with this role found.\");\r\n    }\r\n\r\n    function changeAdmin(address _newAdmin) external onlyAdmin {\r\n        require(_newAdmin != address(0), \"Invalid address\");\r\n        address oldAdmin = admin;\r\n        admin = _newAdmin;\r\n        emit AdminChanged(oldAdmin, _newAdmin);\r\n    }\r\n\r\n    function getRoleFromString(string memory _role) private pure returns (Role) {\r\n        if (keccak256(bytes(_role)) == keccak256(bytes(\"Producer\"))) {\r\n            return Role.Producer;\r\n        } else if (keccak256(bytes(_role)) == keccak256(bytes(\"Recycler\"))) {\r\n            return Role.Recycler;\r\n        } else if (keccak256(bytes(_role)) == keccak256(bytes(\"Logistics\"))) {\r\n            return Role.Logistics;\r\n        } else if (keccak256(bytes(_role)) == keccak256(bytes(\"Regulator\"))) {\r\n            return Role.Regulator;\r\n        } else {\r\n            return Role.None;\r\n        }\r\n    }\r\n}",
  "sourcePath": "C:\\Users\\harod\\OneDrive\\Documents\\Ewaste11\\ewaste_v2\\contracts\\UserManagement.sol",
  "compiler": {
    "name": "solc",
    "version": "0.8.0+commit.c7dfd78e.Emscripten.clang"
  },
  "schemaVersion": "3.4.16",
  "updatedAt": "2025-05-13T14:03:44.158Z",
  "networkType": "ethereum",
  "devdoc": {
    "kind": "dev",
    "methods": {},
    "version": 1
  },
  "userdoc": {
    "kind": "user",
    "methods": {},
    "version": 1
  }
}